{
	"contracts/ArrayReplaceFromEnd.sol": {
		"ArrayReplaceFromEnd": {
			"abi": [
				{
					"inputs": [
						{
							"internalType": "uint256",
							"name": "",
							"type": "uint256"
						}
					],
					"name": "arr",
					"outputs": [
						{
							"internalType": "uint256",
							"name": "",
							"type": "uint256"
						}
					],
					"stateMutability": "view",
					"type": "function"
				},
				{
					"inputs": [
						{
							"internalType": "uint256",
							"name": "_index",
							"type": "uint256"
						}
					],
					"name": "remove",
					"outputs": [],
					"stateMutability": "nonpayable",
					"type": "function"
				},
				{
					"inputs": [],
					"name": "test",
					"outputs": [],
					"stateMutability": "nonpayable",
					"type": "function"
				}
			],
			"devdoc": {
				"kind": "dev",
				"methods": {},
				"version": 1
			},
			"evm": {
				"assembly": "    /* \"contracts/ArrayReplaceFromEnd.sol\":67:626  contract ArrayReplaceFromEnd {... */\n  mstore(0x40, 0x80)\n  callvalue\n  dup1\n  iszero\n  tag_1\n  jumpi\n  0x00\n  dup1\n  revert\ntag_1:\n  pop\n  dataSize(sub_0)\n  dup1\n  dataOffset(sub_0)\n  0x00\n  codecopy\n  0x00\n  return\nstop\n\nsub_0: assembly {\n        /* \"contracts/ArrayReplaceFromEnd.sol\":67:626  contract ArrayReplaceFromEnd {... */\n      mstore(0x40, 0x80)\n      callvalue\n      dup1\n      iszero\n      tag_1\n      jumpi\n      0x00\n      dup1\n      revert\n    tag_1:\n      pop\n      jumpi(tag_2, lt(calldatasize, 0x04))\n      shr(0xe0, calldataload(0x00))\n      dup1\n      0x4cc82215\n      eq\n      tag_3\n      jumpi\n      dup1\n      0x71e5ee5f\n      eq\n      tag_4\n      jumpi\n      dup1\n      0xf8a8fd6d\n      eq\n      tag_5\n      jumpi\n    tag_2:\n      0x00\n      dup1\n      revert\n        /* \"contracts/ArrayReplaceFromEnd.sol\":136:303  function remove(uint256 _index) public {... */\n    tag_3:\n      tag_6\n      0x04\n      dup1\n      calldatasize\n      sub\n      dup2\n      add\n      swap1\n      tag_7\n      swap2\n      swap1\n      tag_8\n      jump\t// in\n    tag_7:\n      tag_9\n      jump\t// in\n    tag_6:\n      stop\n        /* \"contracts/ArrayReplaceFromEnd.sol\":107:127  uint256[] public arr */\n    tag_4:\n      tag_10\n      0x04\n      dup1\n      calldatasize\n      sub\n      dup2\n      add\n      swap1\n      tag_11\n      swap2\n      swap1\n      tag_8\n      jump\t// in\n    tag_11:\n      tag_12\n      jump\t// in\n    tag_10:\n      mload(0x40)\n      tag_13\n      swap2\n      swap1\n      tag_14\n      jump\t// in\n    tag_13:\n      mload(0x40)\n      dup1\n      swap2\n      sub\n      swap1\n      return\n        /* \"contracts/ArrayReplaceFromEnd.sol\":311:623  function test() external  {... */\n    tag_5:\n      tag_15\n      tag_16\n      jump\t// in\n    tag_15:\n      stop\n        /* \"contracts/ArrayReplaceFromEnd.sol\":136:303  function remove(uint256 _index) public {... */\n    tag_9:\n        /* \"contracts/ArrayReplaceFromEnd.sol\":201:204  arr */\n      0x00\n        /* \"contracts/ArrayReplaceFromEnd.sol\":201:211  arr.length */\n      dup1\n      sload\n      swap1\n      pop\n        /* \"contracts/ArrayReplaceFromEnd.sol\":194:200  _index */\n      dup2\n        /* \"contracts/ArrayReplaceFromEnd.sol\":194:211  _index<arr.length */\n      lt\n        /* \"contracts/ArrayReplaceFromEnd.sol\":186:233  require(_index<arr.length,\"index out of bound\") */\n      tag_18\n      jumpi\n      mload(0x40)\n      0x08c379a000000000000000000000000000000000000000000000000000000000\n      dup2\n      mstore\n      0x04\n      add\n      tag_19\n      swap1\n      tag_20\n      jump\t// in\n    tag_19:\n      mload(0x40)\n      dup1\n      swap2\n      sub\n      swap1\n      revert\n    tag_18:\n        /* \"contracts/ArrayReplaceFromEnd.sol\":258:261  arr */\n      0x00\n        /* \"contracts/ArrayReplaceFromEnd.sol\":273:274  1 */\n      0x01\n        /* \"contracts/ArrayReplaceFromEnd.sol\":262:265  arr */\n      0x00\n        /* \"contracts/ArrayReplaceFromEnd.sol\":262:272  arr.length */\n      dup1\n      sload\n      swap1\n      pop\n        /* \"contracts/ArrayReplaceFromEnd.sol\":262:274  arr.length-1 */\n      tag_21\n      swap2\n      swap1\n      tag_22\n      jump\t// in\n    tag_21:\n        /* \"contracts/ArrayReplaceFromEnd.sol\":258:275  arr[arr.length-1] */\n      dup2\n      sload\n      dup2\n      lt\n      tag_23\n      jumpi\n      tag_24\n      tag_25\n      jump\t// in\n    tag_24:\n    tag_23:\n      swap1\n      0x00\n      mstore\n      keccak256(0x00, 0x20)\n      add\n      sload\n        /* \"contracts/ArrayReplaceFromEnd.sol\":244:247  arr */\n      0x00\n        /* \"contracts/ArrayReplaceFromEnd.sol\":248:254  _index */\n      dup3\n        /* \"contracts/ArrayReplaceFromEnd.sol\":244:255  arr[_index] */\n      dup2\n      sload\n      dup2\n      lt\n      tag_27\n      jumpi\n      tag_28\n      tag_25\n      jump\t// in\n    tag_28:\n    tag_27:\n      swap1\n      0x00\n      mstore\n      keccak256(0x00, 0x20)\n      add\n        /* \"contracts/ArrayReplaceFromEnd.sol\":244:275  arr[_index] = arr[arr.length-1] */\n      dup2\n      swap1\n      sstore\n      pop\n        /* \"contracts/ArrayReplaceFromEnd.sol\":286:289  arr */\n      0x00\n        /* \"contracts/ArrayReplaceFromEnd.sol\":286:295  arr.pop() */\n      dup1\n      sload\n      dup1\n      tag_30\n      jumpi\n      tag_31\n      tag_32\n      jump\t// in\n    tag_31:\n    tag_30:\n      0x01\n      swap1\n      sub\n      dup2\n      dup2\n      swap1\n      0x00\n      mstore\n      keccak256(0x00, 0x20)\n      add\n      0x00\n      swap1\n      sstore\n      swap1\n      sstore\n        /* \"contracts/ArrayReplaceFromEnd.sol\":136:303  function remove(uint256 _index) public {... */\n      pop\n      jump\t// out\n        /* \"contracts/ArrayReplaceFromEnd.sol\":107:127  uint256[] public arr */\n    tag_12:\n      0x00\n      dup2\n      dup2\n      sload\n      dup2\n      lt\n      tag_34\n      jumpi\n      0x00\n      dup1\n      revert\n    tag_34:\n      swap1\n      0x00\n      mstore\n      keccak256(0x00, 0x20)\n      add\n      0x00\n      swap2\n      pop\n      swap1\n      pop\n      sload\n      dup2\n      jump\t// out\n        /* \"contracts/ArrayReplaceFromEnd.sol\":311:623  function test() external  {... */\n    tag_16:\n        /* \"contracts/ArrayReplaceFromEnd.sol\":347:361  arr= [1,2,3,4] */\n      mload(0x40)\n      dup1\n      0x80\n      add\n      0x40\n      mstore\n      dup1\n        /* \"contracts/ArrayReplaceFromEnd.sol\":353:354  1 */\n      0x01\n        /* \"contracts/ArrayReplaceFromEnd.sol\":347:361  arr= [1,2,3,4] */\n      0xff\n      and\n      dup2\n      mstore\n      0x20\n      add\n        /* \"contracts/ArrayReplaceFromEnd.sol\":355:356  2 */\n      0x02\n        /* \"contracts/ArrayReplaceFromEnd.sol\":347:361  arr= [1,2,3,4] */\n      0xff\n      and\n      dup2\n      mstore\n      0x20\n      add\n        /* \"contracts/ArrayReplaceFromEnd.sol\":357:358  3 */\n      0x03\n        /* \"contracts/ArrayReplaceFromEnd.sol\":347:361  arr= [1,2,3,4] */\n      0xff\n      and\n      dup2\n      mstore\n      0x20\n      add\n        /* \"contracts/ArrayReplaceFromEnd.sol\":359:360  4 */\n      0x04\n        /* \"contracts/ArrayReplaceFromEnd.sol\":347:361  arr= [1,2,3,4] */\n      0xff\n      and\n      dup2\n      mstore\n      pop\n        /* \"contracts/ArrayReplaceFromEnd.sol\":347:350  arr */\n      0x00\n        /* \"contracts/ArrayReplaceFromEnd.sol\":347:361  arr= [1,2,3,4] */\n      swap1\n      0x04\n      tag_37\n      swap3\n      swap2\n      swap1\n      tag_38\n      jump\t// in\n    tag_37:\n      pop\n        /* \"contracts/ArrayReplaceFromEnd.sol\":371:380  remove(1) */\n      tag_39\n        /* \"contracts/ArrayReplaceFromEnd.sol\":378:379  1 */\n      0x01\n        /* \"contracts/ArrayReplaceFromEnd.sol\":371:377  remove */\n      tag_9\n        /* \"contracts/ArrayReplaceFromEnd.sol\":371:380  remove(1) */\n      jump\t// in\n    tag_39:\n        /* \"contracts/ArrayReplaceFromEnd.sol\":407:408  1 */\n      0x01\n        /* \"contracts/ArrayReplaceFromEnd.sol\":397:400  arr */\n      0x00\n        /* \"contracts/ArrayReplaceFromEnd.sol\":401:402  0 */\n      dup1\n        /* \"contracts/ArrayReplaceFromEnd.sol\":397:403  arr[0] */\n      dup2\n      sload\n      dup2\n      lt\n      tag_40\n      jumpi\n      tag_41\n      tag_25\n      jump\t// in\n    tag_41:\n    tag_40:\n      swap1\n      0x00\n      mstore\n      keccak256(0x00, 0x20)\n      add\n      sload\n        /* \"contracts/ArrayReplaceFromEnd.sol\":397:408  arr[0] == 1 */\n      eq\n        /* \"contracts/ArrayReplaceFromEnd.sol\":390:409  assert(arr[0] == 1) */\n      tag_43\n      jumpi\n      tag_44\n      tag_45\n      jump\t// in\n    tag_44:\n    tag_43:\n        /* \"contracts/ArrayReplaceFromEnd.sol\":436:437  4 */\n      0x04\n        /* \"contracts/ArrayReplaceFromEnd.sol\":426:429  arr */\n      0x00\n        /* \"contracts/ArrayReplaceFromEnd.sol\":430:431  1 */\n      0x01\n        /* \"contracts/ArrayReplaceFromEnd.sol\":426:432  arr[1] */\n      dup2\n      sload\n      dup2\n      lt\n      tag_46\n      jumpi\n      tag_47\n      tag_25\n      jump\t// in\n    tag_47:\n    tag_46:\n      swap1\n      0x00\n      mstore\n      keccak256(0x00, 0x20)\n      add\n      sload\n        /* \"contracts/ArrayReplaceFromEnd.sol\":426:437  arr[1] == 4 */\n      eq\n        /* \"contracts/ArrayReplaceFromEnd.sol\":419:438  assert(arr[1] == 4) */\n      tag_49\n      jumpi\n      tag_50\n      tag_45\n      jump\t// in\n    tag_50:\n    tag_49:\n        /* \"contracts/ArrayReplaceFromEnd.sol\":465:466  3 */\n      0x03\n        /* \"contracts/ArrayReplaceFromEnd.sol\":455:458  arr */\n      0x00\n        /* \"contracts/ArrayReplaceFromEnd.sol\":459:460  2 */\n      0x02\n        /* \"contracts/ArrayReplaceFromEnd.sol\":455:461  arr[2] */\n      dup2\n      sload\n      dup2\n      lt\n      tag_51\n      jumpi\n      tag_52\n      tag_25\n      jump\t// in\n    tag_52:\n    tag_51:\n      swap1\n      0x00\n      mstore\n      keccak256(0x00, 0x20)\n      add\n      sload\n        /* \"contracts/ArrayReplaceFromEnd.sol\":455:466  arr[2] == 3 */\n      eq\n        /* \"contracts/ArrayReplaceFromEnd.sol\":448:467  assert(arr[2] == 3) */\n      tag_54\n      jumpi\n      tag_55\n      tag_45\n      jump\t// in\n    tag_55:\n    tag_54:\n        /* \"contracts/ArrayReplaceFromEnd.sol\":486:495  remove(2) */\n      tag_56\n        /* \"contracts/ArrayReplaceFromEnd.sol\":493:494  2 */\n      0x02\n        /* \"contracts/ArrayReplaceFromEnd.sol\":486:492  remove */\n      tag_9\n        /* \"contracts/ArrayReplaceFromEnd.sol\":486:495  remove(2) */\n      jump\t// in\n    tag_56:\n        /* \"contracts/ArrayReplaceFromEnd.sol\":526:527  2 */\n      0x02\n        /* \"contracts/ArrayReplaceFromEnd.sol\":512:515  arr */\n      0x00\n        /* \"contracts/ArrayReplaceFromEnd.sol\":512:522  arr.length */\n      dup1\n      sload\n      swap1\n      pop\n        /* \"contracts/ArrayReplaceFromEnd.sol\":512:527  arr.length == 2 */\n      eq\n        /* \"contracts/ArrayReplaceFromEnd.sol\":505:528  assert(arr.length == 2) */\n      tag_57\n      jumpi\n      tag_58\n      tag_45\n      jump\t// in\n    tag_58:\n    tag_57:\n        /* \"contracts/ArrayReplaceFromEnd.sol\":557:558  1 */\n      0x01\n        /* \"contracts/ArrayReplaceFromEnd.sol\":547:550  arr */\n      0x00\n        /* \"contracts/ArrayReplaceFromEnd.sol\":551:552  0 */\n      dup1\n        /* \"contracts/ArrayReplaceFromEnd.sol\":547:553  arr[0] */\n      dup2\n      sload\n      dup2\n      lt\n      tag_59\n      jumpi\n      tag_60\n      tag_25\n      jump\t// in\n    tag_60:\n    tag_59:\n      swap1\n      0x00\n      mstore\n      keccak256(0x00, 0x20)\n      add\n      sload\n        /* \"contracts/ArrayReplaceFromEnd.sol\":547:558  arr[0] == 1 */\n      eq\n        /* \"contracts/ArrayReplaceFromEnd.sol\":540:559  assert(arr[0] == 1) */\n      tag_62\n      jumpi\n      tag_63\n      tag_45\n      jump\t// in\n    tag_63:\n    tag_62:\n        /* \"contracts/ArrayReplaceFromEnd.sol\":586:587  4 */\n      0x04\n        /* \"contracts/ArrayReplaceFromEnd.sol\":576:579  arr */\n      0x00\n        /* \"contracts/ArrayReplaceFromEnd.sol\":580:581  1 */\n      0x01\n        /* \"contracts/ArrayReplaceFromEnd.sol\":576:582  arr[1] */\n      dup2\n      sload\n      dup2\n      lt\n      tag_64\n      jumpi\n      tag_65\n      tag_25\n      jump\t// in\n    tag_65:\n    tag_64:\n      swap1\n      0x00\n      mstore\n      keccak256(0x00, 0x20)\n      add\n      sload\n        /* \"contracts/ArrayReplaceFromEnd.sol\":576:587  arr[1] == 4 */\n      eq\n        /* \"contracts/ArrayReplaceFromEnd.sol\":569:588  assert(arr[1] == 4) */\n      tag_67\n      jumpi\n      tag_68\n      tag_45\n      jump\t// in\n    tag_68:\n    tag_67:\n        /* \"contracts/ArrayReplaceFromEnd.sol\":311:623  function test() external  {... */\n      jump\t// out\n    tag_38:\n      dup3\n      dup1\n      sload\n      dup3\n      dup3\n      sstore\n      swap1\n      0x00\n      mstore\n      keccak256(0x00, 0x20)\n      swap1\n      dup2\n      add\n      swap3\n      dup3\n      iszero\n      tag_69\n      jumpi\n      swap2\n      0x20\n      mul\n      dup3\n      add\n    tag_70:\n      dup3\n      dup2\n      gt\n      iszero\n      tag_71\n      jumpi\n      dup3\n      mload\n      dup3\n      swap1\n      0xff\n      and\n      swap1\n      sstore\n      swap2\n      0x20\n      add\n      swap2\n      swap1\n      0x01\n      add\n      swap1\n      jump(tag_70)\n    tag_71:\n    tag_69:\n      pop\n      swap1\n      pop\n      tag_72\n      swap2\n      swap1\n      tag_73\n      jump\t// in\n    tag_72:\n      pop\n      swap1\n      jump\t// out\n    tag_73:\n    tag_74:\n      dup1\n      dup3\n      gt\n      iszero\n      tag_75\n      jumpi\n      0x00\n      dup2\n      0x00\n      swap1\n      sstore\n      pop\n      0x01\n      add\n      jump(tag_74)\n    tag_75:\n      pop\n      swap1\n      jump\t// out\n        /* \"#utility.yul\":88:205   */\n    tag_77:\n        /* \"#utility.yul\":197:198   */\n      0x00\n        /* \"#utility.yul\":194:195   */\n      dup1\n        /* \"#utility.yul\":187:199   */\n      revert\n        /* \"#utility.yul\":334:411   */\n    tag_79:\n        /* \"#utility.yul\":371:378   */\n      0x00\n        /* \"#utility.yul\":400:405   */\n      dup2\n        /* \"#utility.yul\":389:405   */\n      swap1\n      pop\n        /* \"#utility.yul\":334:411   */\n      swap2\n      swap1\n      pop\n      jump\t// out\n        /* \"#utility.yul\":417:539   */\n    tag_80:\n        /* \"#utility.yul\":490:514   */\n      tag_93\n        /* \"#utility.yul\":508:513   */\n      dup2\n        /* \"#utility.yul\":490:514   */\n      tag_79\n      jump\t// in\n    tag_93:\n        /* \"#utility.yul\":483:488   */\n      dup2\n        /* \"#utility.yul\":480:515   */\n      eq\n        /* \"#utility.yul\":470:533   */\n      tag_94\n      jumpi\n        /* \"#utility.yul\":529:530   */\n      0x00\n        /* \"#utility.yul\":526:527   */\n      dup1\n        /* \"#utility.yul\":519:531   */\n      revert\n        /* \"#utility.yul\":470:533   */\n    tag_94:\n        /* \"#utility.yul\":417:539   */\n      pop\n      jump\t// out\n        /* \"#utility.yul\":545:684   */\n    tag_81:\n        /* \"#utility.yul\":591:596   */\n      0x00\n        /* \"#utility.yul\":629:635   */\n      dup2\n        /* \"#utility.yul\":616:636   */\n      calldataload\n        /* \"#utility.yul\":607:636   */\n      swap1\n      pop\n        /* \"#utility.yul\":645:678   */\n      tag_96\n        /* \"#utility.yul\":672:677   */\n      dup2\n        /* \"#utility.yul\":645:678   */\n      tag_80\n      jump\t// in\n    tag_96:\n        /* \"#utility.yul\":545:684   */\n      swap3\n      swap2\n      pop\n      pop\n      jump\t// out\n        /* \"#utility.yul\":690:1019   */\n    tag_8:\n        /* \"#utility.yul\":749:755   */\n      0x00\n        /* \"#utility.yul\":798:800   */\n      0x20\n        /* \"#utility.yul\":786:795   */\n      dup3\n        /* \"#utility.yul\":777:784   */\n      dup5\n        /* \"#utility.yul\":773:796   */\n      sub\n        /* \"#utility.yul\":769:801   */\n      slt\n        /* \"#utility.yul\":766:885   */\n      iszero\n      tag_98\n      jumpi\n        /* \"#utility.yul\":804:883   */\n      tag_99\n      tag_77\n      jump\t// in\n    tag_99:\n        /* \"#utility.yul\":766:885   */\n    tag_98:\n        /* \"#utility.yul\":924:925   */\n      0x00\n        /* \"#utility.yul\":949:1002   */\n      tag_100\n        /* \"#utility.yul\":994:1001   */\n      dup5\n        /* \"#utility.yul\":985:991   */\n      dup3\n        /* \"#utility.yul\":974:983   */\n      dup6\n        /* \"#utility.yul\":970:992   */\n      add\n        /* \"#utility.yul\":949:1002   */\n      tag_81\n      jump\t// in\n    tag_100:\n        /* \"#utility.yul\":939:1002   */\n      swap2\n      pop\n        /* \"#utility.yul\":895:1012   */\n      pop\n        /* \"#utility.yul\":690:1019   */\n      swap3\n      swap2\n      pop\n      pop\n      jump\t// out\n        /* \"#utility.yul\":1025:1143   */\n    tag_82:\n        /* \"#utility.yul\":1112:1136   */\n      tag_102\n        /* \"#utility.yul\":1130:1135   */\n      dup2\n        /* \"#utility.yul\":1112:1136   */\n      tag_79\n      jump\t// in\n    tag_102:\n        /* \"#utility.yul\":1107:1110   */\n      dup3\n        /* \"#utility.yul\":1100:1137   */\n      mstore\n        /* \"#utility.yul\":1025:1143   */\n      pop\n      pop\n      jump\t// out\n        /* \"#utility.yul\":1149:1371   */\n    tag_14:\n        /* \"#utility.yul\":1242:1246   */\n      0x00\n        /* \"#utility.yul\":1280:1282   */\n      0x20\n        /* \"#utility.yul\":1269:1278   */\n      dup3\n        /* \"#utility.yul\":1265:1283   */\n      add\n        /* \"#utility.yul\":1257:1283   */\n      swap1\n      pop\n        /* \"#utility.yul\":1293:1364   */\n      tag_104\n        /* \"#utility.yul\":1361:1362   */\n      0x00\n        /* \"#utility.yul\":1350:1359   */\n      dup4\n        /* \"#utility.yul\":1346:1363   */\n      add\n        /* \"#utility.yul\":1337:1343   */\n      dup5\n        /* \"#utility.yul\":1293:1364   */\n      tag_82\n      jump\t// in\n    tag_104:\n        /* \"#utility.yul\":1149:1371   */\n      swap3\n      swap2\n      pop\n      pop\n      jump\t// out\n        /* \"#utility.yul\":1377:1546   */\n    tag_83:\n        /* \"#utility.yul\":1461:1472   */\n      0x00\n        /* \"#utility.yul\":1495:1501   */\n      dup3\n        /* \"#utility.yul\":1490:1493   */\n      dup3\n        /* \"#utility.yul\":1483:1502   */\n      mstore\n        /* \"#utility.yul\":1535:1539   */\n      0x20\n        /* \"#utility.yul\":1530:1533   */\n      dup3\n        /* \"#utility.yul\":1526:1540   */\n      add\n        /* \"#utility.yul\":1511:1540   */\n      swap1\n      pop\n        /* \"#utility.yul\":1377:1546   */\n      swap3\n      swap2\n      pop\n      pop\n      jump\t// out\n        /* \"#utility.yul\":1552:1720   */\n    tag_84:\n        /* \"#utility.yul\":1692:1712   */\n      0x696e646578206f7574206f6620626f756e640000000000000000000000000000\n        /* \"#utility.yul\":1688:1689   */\n      0x00\n        /* \"#utility.yul\":1680:1686   */\n      dup3\n        /* \"#utility.yul\":1676:1690   */\n      add\n        /* \"#utility.yul\":1669:1713   */\n      mstore\n        /* \"#utility.yul\":1552:1720   */\n      pop\n      jump\t// out\n        /* \"#utility.yul\":1726:2092   */\n    tag_85:\n        /* \"#utility.yul\":1868:1871   */\n      0x00\n        /* \"#utility.yul\":1889:1956   */\n      tag_108\n        /* \"#utility.yul\":1953:1955   */\n      0x12\n        /* \"#utility.yul\":1948:1951   */\n      dup4\n        /* \"#utility.yul\":1889:1956   */\n      tag_83\n      jump\t// in\n    tag_108:\n        /* \"#utility.yul\":1882:1956   */\n      swap2\n      pop\n        /* \"#utility.yul\":1965:2058   */\n      tag_109\n        /* \"#utility.yul\":2054:2057   */\n      dup3\n        /* \"#utility.yul\":1965:2058   */\n      tag_84\n      jump\t// in\n    tag_109:\n        /* \"#utility.yul\":2083:2085   */\n      0x20\n        /* \"#utility.yul\":2078:2081   */\n      dup3\n        /* \"#utility.yul\":2074:2086   */\n      add\n        /* \"#utility.yul\":2067:2086   */\n      swap1\n      pop\n        /* \"#utility.yul\":1726:2092   */\n      swap2\n      swap1\n      pop\n      jump\t// out\n        /* \"#utility.yul\":2098:2517   */\n    tag_20:\n        /* \"#utility.yul\":2264:2268   */\n      0x00\n        /* \"#utility.yul\":2302:2304   */\n      0x20\n        /* \"#utility.yul\":2291:2300   */\n      dup3\n        /* \"#utility.yul\":2287:2305   */\n      add\n        /* \"#utility.yul\":2279:2305   */\n      swap1\n      pop\n        /* \"#utility.yul\":2351:2360   */\n      dup2\n        /* \"#utility.yul\":2345:2349   */\n      dup2\n        /* \"#utility.yul\":2341:2361   */\n      sub\n        /* \"#utility.yul\":2337:2338   */\n      0x00\n        /* \"#utility.yul\":2326:2335   */\n      dup4\n        /* \"#utility.yul\":2322:2339   */\n      add\n        /* \"#utility.yul\":2315:2362   */\n      mstore\n        /* \"#utility.yul\":2379:2510   */\n      tag_111\n        /* \"#utility.yul\":2505:2509   */\n      dup2\n        /* \"#utility.yul\":2379:2510   */\n      tag_85\n      jump\t// in\n    tag_111:\n        /* \"#utility.yul\":2371:2510   */\n      swap1\n      pop\n        /* \"#utility.yul\":2098:2517   */\n      swap2\n      swap1\n      pop\n      jump\t// out\n        /* \"#utility.yul\":2523:2703   */\n    tag_86:\n        /* \"#utility.yul\":2571:2648   */\n      0x4e487b7100000000000000000000000000000000000000000000000000000000\n        /* \"#utility.yul\":2568:2569   */\n      0x00\n        /* \"#utility.yul\":2561:2649   */\n      mstore\n        /* \"#utility.yul\":2668:2672   */\n      0x11\n        /* \"#utility.yul\":2665:2666   */\n      0x04\n        /* \"#utility.yul\":2658:2673   */\n      mstore\n        /* \"#utility.yul\":2692:2696   */\n      0x24\n        /* \"#utility.yul\":2689:2690   */\n      0x00\n        /* \"#utility.yul\":2682:2697   */\n      revert\n        /* \"#utility.yul\":2709:2903   */\n    tag_22:\n        /* \"#utility.yul\":2749:2753   */\n      0x00\n        /* \"#utility.yul\":2769:2789   */\n      tag_114\n        /* \"#utility.yul\":2787:2788   */\n      dup3\n        /* \"#utility.yul\":2769:2789   */\n      tag_79\n      jump\t// in\n    tag_114:\n        /* \"#utility.yul\":2764:2789   */\n      swap2\n      pop\n        /* \"#utility.yul\":2803:2823   */\n      tag_115\n        /* \"#utility.yul\":2821:2822   */\n      dup4\n        /* \"#utility.yul\":2803:2823   */\n      tag_79\n      jump\t// in\n    tag_115:\n        /* \"#utility.yul\":2798:2823   */\n      swap3\n      pop\n        /* \"#utility.yul\":2847:2848   */\n      dup3\n        /* \"#utility.yul\":2844:2845   */\n      dup3\n        /* \"#utility.yul\":2840:2849   */\n      sub\n        /* \"#utility.yul\":2832:2849   */\n      swap1\n      pop\n        /* \"#utility.yul\":2871:2872   */\n      dup2\n        /* \"#utility.yul\":2865:2869   */\n      dup2\n        /* \"#utility.yul\":2862:2873   */\n      gt\n        /* \"#utility.yul\":2859:2896   */\n      iszero\n      tag_116\n      jumpi\n        /* \"#utility.yul\":2876:2894   */\n      tag_117\n      tag_86\n      jump\t// in\n    tag_117:\n        /* \"#utility.yul\":2859:2896   */\n    tag_116:\n        /* \"#utility.yul\":2709:2903   */\n      swap3\n      swap2\n      pop\n      pop\n      jump\t// out\n        /* \"#utility.yul\":2909:3089   */\n    tag_25:\n        /* \"#utility.yul\":2957:3034   */\n      0x4e487b7100000000000000000000000000000000000000000000000000000000\n        /* \"#utility.yul\":2954:2955   */\n      0x00\n        /* \"#utility.yul\":2947:3035   */\n      mstore\n        /* \"#utility.yul\":3054:3058   */\n      0x32\n        /* \"#utility.yul\":3051:3052   */\n      0x04\n        /* \"#utility.yul\":3044:3059   */\n      mstore\n        /* \"#utility.yul\":3078:3082   */\n      0x24\n        /* \"#utility.yul\":3075:3076   */\n      0x00\n        /* \"#utility.yul\":3068:3083   */\n      revert\n        /* \"#utility.yul\":3095:3275   */\n    tag_32:\n        /* \"#utility.yul\":3143:3220   */\n      0x4e487b7100000000000000000000000000000000000000000000000000000000\n        /* \"#utility.yul\":3140:3141   */\n      0x00\n        /* \"#utility.yul\":3133:3221   */\n      mstore\n        /* \"#utility.yul\":3240:3244   */\n      0x31\n        /* \"#utility.yul\":3237:3238   */\n      0x04\n        /* \"#utility.yul\":3230:3245   */\n      mstore\n        /* \"#utility.yul\":3264:3268   */\n      0x24\n        /* \"#utility.yul\":3261:3262   */\n      0x00\n        /* \"#utility.yul\":3254:3269   */\n      revert\n        /* \"#utility.yul\":3281:3461   */\n    tag_45:\n        /* \"#utility.yul\":3329:3406   */\n      0x4e487b7100000000000000000000000000000000000000000000000000000000\n        /* \"#utility.yul\":3326:3327   */\n      0x00\n        /* \"#utility.yul\":3319:3407   */\n      mstore\n        /* \"#utility.yul\":3426:3430   */\n      0x01\n        /* \"#utility.yul\":3423:3424   */\n      0x04\n        /* \"#utility.yul\":3416:3431   */\n      mstore\n        /* \"#utility.yul\":3450:3454   */\n      0x24\n        /* \"#utility.yul\":3447:3448   */\n      0x00\n        /* \"#utility.yul\":3440:3455   */\n      revert\n\n    auxdata: 0xa264697066735822122053f718037167127172ad89d2d8fdd3659a4c19430896559b9fcf4c55d3b3866764736f6c634300081a0033\n}\n",
				"bytecode": {
					"linkReferences": {},
					"object": "6080604052348015600e575f80fd5b506105458061001c5f395ff3fe608060405234801561000f575f80fd5b506004361061003f575f3560e01c80634cc822151461004357806371e5ee5f1461005f578063f8a8fd6d1461008f575b5f80fd5b61005d6004803603810190610058919061035d565b610099565b005b6100796004803603810190610074919061035d565b610151565b6040516100869190610397565b60405180910390f35b610097610170565b005b5f8054905081106100df576040517f08c379a00000000000000000000000000000000000000000000000000000000081526004016100d69061040a565b60405180910390fd5b5f60015f805490506100f19190610455565b8154811061010257610101610488565b5b905f5260205f2001545f828154811061011e5761011d610488565b5b905f5260205f2001819055505f80548061013b5761013a6104b5565b5b600190038181905f5260205f20015f9055905550565b5f818154811061015f575f80fd5b905f5260205f20015f915090505481565b6040518060800160405280600160ff168152602001600260ff168152602001600360ff168152602001600460ff168152505f9060046101b09291906102bb565b506101bb6001610099565b60015f80815481106101d0576101cf610488565b5b905f5260205f200154146101e7576101e66104e2565b5b60045f6001815481106101fd576101fc610488565b5b905f5260205f20015414610214576102136104e2565b5b60035f60028154811061022a57610229610488565b5b905f5260205f20015414610241576102406104e2565b5b61024b6002610099565b60025f80549050146102605761025f6104e2565b5b60015f808154811061027557610274610488565b5b905f5260205f2001541461028c5761028b6104e2565b5b60045f6001815481106102a2576102a1610488565b5b905f5260205f200154146102b9576102b86104e2565b5b565b828054828255905f5260205f209081019282156102fa579160200282015b828111156102f9578251829060ff169055916020019190600101906102d9565b5b509050610307919061030b565b5090565b5b80821115610322575f815f90555060010161030c565b5090565b5f80fd5b5f819050919050565b61033c8161032a565b8114610346575f80fd5b50565b5f8135905061035781610333565b92915050565b5f6020828403121561037257610371610326565b5b5f61037f84828501610349565b91505092915050565b6103918161032a565b82525050565b5f6020820190506103aa5f830184610388565b92915050565b5f82825260208201905092915050565b7f696e646578206f7574206f6620626f756e6400000000000000000000000000005f82015250565b5f6103f46012836103b0565b91506103ff826103c0565b602082019050919050565b5f6020820190508181035f830152610421816103e8565b9050919050565b7f4e487b71000000000000000000000000000000000000000000000000000000005f52601160045260245ffd5b5f61045f8261032a565b915061046a8361032a565b925082820390508181111561048257610481610428565b5b92915050565b7f4e487b71000000000000000000000000000000000000000000000000000000005f52603260045260245ffd5b7f4e487b71000000000000000000000000000000000000000000000000000000005f52603160045260245ffd5b7f4e487b71000000000000000000000000000000000000000000000000000000005f52600160045260245ffdfea264697066735822122053f718037167127172ad89d2d8fdd3659a4c19430896559b9fcf4c55d3b3866764736f6c634300081a0033",
					"opcodes": "PUSH1 0x80 PUSH1 0x40 MSTORE CALLVALUE DUP1 ISZERO PUSH1 0xE JUMPI PUSH0 DUP1 REVERT JUMPDEST POP PUSH2 0x545 DUP1 PUSH2 0x1C PUSH0 CODECOPY PUSH0 RETURN INVALID PUSH1 0x80 PUSH1 0x40 MSTORE CALLVALUE DUP1 ISZERO PUSH2 0xF JUMPI PUSH0 DUP1 REVERT JUMPDEST POP PUSH1 0x4 CALLDATASIZE LT PUSH2 0x3F JUMPI PUSH0 CALLDATALOAD PUSH1 0xE0 SHR DUP1 PUSH4 0x4CC82215 EQ PUSH2 0x43 JUMPI DUP1 PUSH4 0x71E5EE5F EQ PUSH2 0x5F JUMPI DUP1 PUSH4 0xF8A8FD6D EQ PUSH2 0x8F JUMPI JUMPDEST PUSH0 DUP1 REVERT JUMPDEST PUSH2 0x5D PUSH1 0x4 DUP1 CALLDATASIZE SUB DUP2 ADD SWAP1 PUSH2 0x58 SWAP2 SWAP1 PUSH2 0x35D JUMP JUMPDEST PUSH2 0x99 JUMP JUMPDEST STOP JUMPDEST PUSH2 0x79 PUSH1 0x4 DUP1 CALLDATASIZE SUB DUP2 ADD SWAP1 PUSH2 0x74 SWAP2 SWAP1 PUSH2 0x35D JUMP JUMPDEST PUSH2 0x151 JUMP JUMPDEST PUSH1 0x40 MLOAD PUSH2 0x86 SWAP2 SWAP1 PUSH2 0x397 JUMP JUMPDEST PUSH1 0x40 MLOAD DUP1 SWAP2 SUB SWAP1 RETURN JUMPDEST PUSH2 0x97 PUSH2 0x170 JUMP JUMPDEST STOP JUMPDEST PUSH0 DUP1 SLOAD SWAP1 POP DUP2 LT PUSH2 0xDF JUMPI PUSH1 0x40 MLOAD PUSH32 0x8C379A000000000000000000000000000000000000000000000000000000000 DUP2 MSTORE PUSH1 0x4 ADD PUSH2 0xD6 SWAP1 PUSH2 0x40A JUMP JUMPDEST PUSH1 0x40 MLOAD DUP1 SWAP2 SUB SWAP1 REVERT JUMPDEST PUSH0 PUSH1 0x1 PUSH0 DUP1 SLOAD SWAP1 POP PUSH2 0xF1 SWAP2 SWAP1 PUSH2 0x455 JUMP JUMPDEST DUP2 SLOAD DUP2 LT PUSH2 0x102 JUMPI PUSH2 0x101 PUSH2 0x488 JUMP JUMPDEST JUMPDEST SWAP1 PUSH0 MSTORE PUSH1 0x20 PUSH0 KECCAK256 ADD SLOAD PUSH0 DUP3 DUP2 SLOAD DUP2 LT PUSH2 0x11E JUMPI PUSH2 0x11D PUSH2 0x488 JUMP JUMPDEST JUMPDEST SWAP1 PUSH0 MSTORE PUSH1 0x20 PUSH0 KECCAK256 ADD DUP2 SWAP1 SSTORE POP PUSH0 DUP1 SLOAD DUP1 PUSH2 0x13B JUMPI PUSH2 0x13A PUSH2 0x4B5 JUMP JUMPDEST JUMPDEST PUSH1 0x1 SWAP1 SUB DUP2 DUP2 SWAP1 PUSH0 MSTORE PUSH1 0x20 PUSH0 KECCAK256 ADD PUSH0 SWAP1 SSTORE SWAP1 SSTORE POP JUMP JUMPDEST PUSH0 DUP2 DUP2 SLOAD DUP2 LT PUSH2 0x15F JUMPI PUSH0 DUP1 REVERT JUMPDEST SWAP1 PUSH0 MSTORE PUSH1 0x20 PUSH0 KECCAK256 ADD PUSH0 SWAP2 POP SWAP1 POP SLOAD DUP2 JUMP JUMPDEST PUSH1 0x40 MLOAD DUP1 PUSH1 0x80 ADD PUSH1 0x40 MSTORE DUP1 PUSH1 0x1 PUSH1 0xFF AND DUP2 MSTORE PUSH1 0x20 ADD PUSH1 0x2 PUSH1 0xFF AND DUP2 MSTORE PUSH1 0x20 ADD PUSH1 0x3 PUSH1 0xFF AND DUP2 MSTORE PUSH1 0x20 ADD PUSH1 0x4 PUSH1 0xFF AND DUP2 MSTORE POP PUSH0 SWAP1 PUSH1 0x4 PUSH2 0x1B0 SWAP3 SWAP2 SWAP1 PUSH2 0x2BB JUMP JUMPDEST POP PUSH2 0x1BB PUSH1 0x1 PUSH2 0x99 JUMP JUMPDEST PUSH1 0x1 PUSH0 DUP1 DUP2 SLOAD DUP2 LT PUSH2 0x1D0 JUMPI PUSH2 0x1CF PUSH2 0x488 JUMP JUMPDEST JUMPDEST SWAP1 PUSH0 MSTORE PUSH1 0x20 PUSH0 KECCAK256 ADD SLOAD EQ PUSH2 0x1E7 JUMPI PUSH2 0x1E6 PUSH2 0x4E2 JUMP JUMPDEST JUMPDEST PUSH1 0x4 PUSH0 PUSH1 0x1 DUP2 SLOAD DUP2 LT PUSH2 0x1FD JUMPI PUSH2 0x1FC PUSH2 0x488 JUMP JUMPDEST JUMPDEST SWAP1 PUSH0 MSTORE PUSH1 0x20 PUSH0 KECCAK256 ADD SLOAD EQ PUSH2 0x214 JUMPI PUSH2 0x213 PUSH2 0x4E2 JUMP JUMPDEST JUMPDEST PUSH1 0x3 PUSH0 PUSH1 0x2 DUP2 SLOAD DUP2 LT PUSH2 0x22A JUMPI PUSH2 0x229 PUSH2 0x488 JUMP JUMPDEST JUMPDEST SWAP1 PUSH0 MSTORE PUSH1 0x20 PUSH0 KECCAK256 ADD SLOAD EQ PUSH2 0x241 JUMPI PUSH2 0x240 PUSH2 0x4E2 JUMP JUMPDEST JUMPDEST PUSH2 0x24B PUSH1 0x2 PUSH2 0x99 JUMP JUMPDEST PUSH1 0x2 PUSH0 DUP1 SLOAD SWAP1 POP EQ PUSH2 0x260 JUMPI PUSH2 0x25F PUSH2 0x4E2 JUMP JUMPDEST JUMPDEST PUSH1 0x1 PUSH0 DUP1 DUP2 SLOAD DUP2 LT PUSH2 0x275 JUMPI PUSH2 0x274 PUSH2 0x488 JUMP JUMPDEST JUMPDEST SWAP1 PUSH0 MSTORE PUSH1 0x20 PUSH0 KECCAK256 ADD SLOAD EQ PUSH2 0x28C JUMPI PUSH2 0x28B PUSH2 0x4E2 JUMP JUMPDEST JUMPDEST PUSH1 0x4 PUSH0 PUSH1 0x1 DUP2 SLOAD DUP2 LT PUSH2 0x2A2 JUMPI PUSH2 0x2A1 PUSH2 0x488 JUMP JUMPDEST JUMPDEST SWAP1 PUSH0 MSTORE PUSH1 0x20 PUSH0 KECCAK256 ADD SLOAD EQ PUSH2 0x2B9 JUMPI PUSH2 0x2B8 PUSH2 0x4E2 JUMP JUMPDEST JUMPDEST JUMP JUMPDEST DUP3 DUP1 SLOAD DUP3 DUP3 SSTORE SWAP1 PUSH0 MSTORE PUSH1 0x20 PUSH0 KECCAK256 SWAP1 DUP2 ADD SWAP3 DUP3 ISZERO PUSH2 0x2FA JUMPI SWAP2 PUSH1 0x20 MUL DUP3 ADD JUMPDEST DUP3 DUP2 GT ISZERO PUSH2 0x2F9 JUMPI DUP3 MLOAD DUP3 SWAP1 PUSH1 0xFF AND SWAP1 SSTORE SWAP2 PUSH1 0x20 ADD SWAP2 SWAP1 PUSH1 0x1 ADD SWAP1 PUSH2 0x2D9 JUMP JUMPDEST JUMPDEST POP SWAP1 POP PUSH2 0x307 SWAP2 SWAP1 PUSH2 0x30B JUMP JUMPDEST POP SWAP1 JUMP JUMPDEST JUMPDEST DUP1 DUP3 GT ISZERO PUSH2 0x322 JUMPI PUSH0 DUP2 PUSH0 SWAP1 SSTORE POP PUSH1 0x1 ADD PUSH2 0x30C JUMP JUMPDEST POP SWAP1 JUMP JUMPDEST PUSH0 DUP1 REVERT JUMPDEST PUSH0 DUP2 SWAP1 POP SWAP2 SWAP1 POP JUMP JUMPDEST PUSH2 0x33C DUP2 PUSH2 0x32A JUMP JUMPDEST DUP2 EQ PUSH2 0x346 JUMPI PUSH0 DUP1 REVERT JUMPDEST POP JUMP JUMPDEST PUSH0 DUP2 CALLDATALOAD SWAP1 POP PUSH2 0x357 DUP2 PUSH2 0x333 JUMP JUMPDEST SWAP3 SWAP2 POP POP JUMP JUMPDEST PUSH0 PUSH1 0x20 DUP3 DUP5 SUB SLT ISZERO PUSH2 0x372 JUMPI PUSH2 0x371 PUSH2 0x326 JUMP JUMPDEST JUMPDEST PUSH0 PUSH2 0x37F DUP5 DUP3 DUP6 ADD PUSH2 0x349 JUMP JUMPDEST SWAP2 POP POP SWAP3 SWAP2 POP POP JUMP JUMPDEST PUSH2 0x391 DUP2 PUSH2 0x32A JUMP JUMPDEST DUP3 MSTORE POP POP JUMP JUMPDEST PUSH0 PUSH1 0x20 DUP3 ADD SWAP1 POP PUSH2 0x3AA PUSH0 DUP4 ADD DUP5 PUSH2 0x388 JUMP JUMPDEST SWAP3 SWAP2 POP POP JUMP JUMPDEST PUSH0 DUP3 DUP3 MSTORE PUSH1 0x20 DUP3 ADD SWAP1 POP SWAP3 SWAP2 POP POP JUMP JUMPDEST PUSH32 0x696E646578206F7574206F6620626F756E640000000000000000000000000000 PUSH0 DUP3 ADD MSTORE POP JUMP JUMPDEST PUSH0 PUSH2 0x3F4 PUSH1 0x12 DUP4 PUSH2 0x3B0 JUMP JUMPDEST SWAP2 POP PUSH2 0x3FF DUP3 PUSH2 0x3C0 JUMP JUMPDEST PUSH1 0x20 DUP3 ADD SWAP1 POP SWAP2 SWAP1 POP JUMP JUMPDEST PUSH0 PUSH1 0x20 DUP3 ADD SWAP1 POP DUP2 DUP2 SUB PUSH0 DUP4 ADD MSTORE PUSH2 0x421 DUP2 PUSH2 0x3E8 JUMP JUMPDEST SWAP1 POP SWAP2 SWAP1 POP JUMP JUMPDEST PUSH32 0x4E487B7100000000000000000000000000000000000000000000000000000000 PUSH0 MSTORE PUSH1 0x11 PUSH1 0x4 MSTORE PUSH1 0x24 PUSH0 REVERT JUMPDEST PUSH0 PUSH2 0x45F DUP3 PUSH2 0x32A JUMP JUMPDEST SWAP2 POP PUSH2 0x46A DUP4 PUSH2 0x32A JUMP JUMPDEST SWAP3 POP DUP3 DUP3 SUB SWAP1 POP DUP2 DUP2 GT ISZERO PUSH2 0x482 JUMPI PUSH2 0x481 PUSH2 0x428 JUMP JUMPDEST JUMPDEST SWAP3 SWAP2 POP POP JUMP JUMPDEST PUSH32 0x4E487B7100000000000000000000000000000000000000000000000000000000 PUSH0 MSTORE PUSH1 0x32 PUSH1 0x4 MSTORE PUSH1 0x24 PUSH0 REVERT JUMPDEST PUSH32 0x4E487B7100000000000000000000000000000000000000000000000000000000 PUSH0 MSTORE PUSH1 0x31 PUSH1 0x4 MSTORE PUSH1 0x24 PUSH0 REVERT JUMPDEST PUSH32 0x4E487B7100000000000000000000000000000000000000000000000000000000 PUSH0 MSTORE PUSH1 0x1 PUSH1 0x4 MSTORE PUSH1 0x24 PUSH0 REVERT INVALID LOG2 PUSH5 0x6970667358 0x22 SLT KECCAK256 MSTORE8 0xF7 XOR SUB PUSH18 0x67127172AD89D2D8FDD3659A4C1943089655 SWAP12 SWAP16 0xCF 0x4C SSTORE 0xD3 0xB3 DUP7 PUSH8 0x64736F6C63430008 BYTE STOP CALLER "
				},
				"gasEstimates": {
					"creation": {
						"codeDepositCost": "269800",
						"executionCost": "310",
						"totalCost": "270110"
					},
					"external": {
						"arr(uint256)": "infinite",
						"remove(uint256)": "infinite",
						"test()": "infinite"
					}
				},
				"methodIdentifiers": {
					"arr(uint256)": "71e5ee5f",
					"remove(uint256)": "4cc82215",
					"test()": "f8a8fd6d"
				}
			},
			"storageLayout": {
				"storage": [
					{
						"astId": 4,
						"contract": "contracts/ArrayReplaceFromEnd.sol:ArrayReplaceFromEnd",
						"label": "arr",
						"offset": 0,
						"slot": "0",
						"type": "t_array(t_uint256)dyn_storage"
					}
				],
				"types": {
					"t_array(t_uint256)dyn_storage": {
						"base": "t_uint256",
						"encoding": "dynamic_array",
						"label": "uint256[]",
						"numberOfBytes": "32"
					},
					"t_uint256": {
						"encoding": "inplace",
						"label": "uint256",
						"numberOfBytes": "32"
					}
				}
			},
			"userdoc": {
				"kind": "user",
				"methods": {},
				"version": 1
			}
		}
	}
}