{
	"contracts/Todos.sol": {
		"Todos": {
			"abi": [
				{
					"inputs": [
						{
							"internalType": "string",
							"name": "_text",
							"type": "string"
						}
					],
					"name": "create",
					"outputs": [],
					"stateMutability": "nonpayable",
					"type": "function"
				},
				{
					"inputs": [
						{
							"internalType": "uint256",
							"name": "_index",
							"type": "uint256"
						}
					],
					"name": "get",
					"outputs": [
						{
							"components": [
								{
									"internalType": "string",
									"name": "text",
									"type": "string"
								},
								{
									"internalType": "bool",
									"name": "completed",
									"type": "bool"
								}
							],
							"internalType": "struct Todo",
							"name": "",
							"type": "tuple"
						}
					],
					"stateMutability": "view",
					"type": "function"
				},
				{
					"inputs": [
						{
							"internalType": "uint256",
							"name": "",
							"type": "uint256"
						}
					],
					"name": "todos",
					"outputs": [
						{
							"internalType": "string",
							"name": "text",
							"type": "string"
						},
						{
							"internalType": "bool",
							"name": "completed",
							"type": "bool"
						}
					],
					"stateMutability": "view",
					"type": "function"
				},
				{
					"inputs": [
						{
							"internalType": "uint256",
							"name": "_index",
							"type": "uint256"
						}
					],
					"name": "toggleCompleted",
					"outputs": [],
					"stateMutability": "nonpayable",
					"type": "function"
				},
				{
					"inputs": [
						{
							"internalType": "uint256",
							"name": "_index",
							"type": "uint256"
						},
						{
							"internalType": "string",
							"name": "_text",
							"type": "string"
						}
					],
					"name": "updateText",
					"outputs": [],
					"stateMutability": "nonpayable",
					"type": "function"
				}
			],
			"devdoc": {
				"kind": "dev",
				"methods": {},
				"version": 1
			},
			"evm": {
				"assembly": "    /* \"contracts/Todos.sol\":102:847  contract Todos {... */\n  mstore(0x40, 0x80)\n  callvalue\n  dup1\n  iszero\n  tag_1\n  jumpi\n  0x00\n  dup1\n  revert\ntag_1:\n  pop\n  dataSize(sub_0)\n  dup1\n  dataOffset(sub_0)\n  0x00\n  codecopy\n  0x00\n  return\nstop\n\nsub_0: assembly {\n        /* \"contracts/Todos.sol\":102:847  contract Todos {... */\n      mstore(0x40, 0x80)\n      callvalue\n      dup1\n      iszero\n      tag_1\n      jumpi\n      0x00\n      dup1\n      revert\n    tag_1:\n      pop\n      jumpi(tag_2, lt(calldatasize, 0x04))\n      shr(0xe0, calldataload(0x00))\n      dup1\n      0x455f5024\n      eq\n      tag_3\n      jumpi\n      dup1\n      0x9507d39a\n      eq\n      tag_4\n      jumpi\n      dup1\n      0xb6a46b3b\n      eq\n      tag_5\n      jumpi\n      dup1\n      0xbc8bc2b4\n      eq\n      tag_6\n      jumpi\n      dup1\n      0xcd111614\n      eq\n      tag_7\n      jumpi\n    tag_2:\n      0x00\n      dup1\n      revert\n        /* \"contracts/Todos.sol\":710:844  function toggleCompleted(uint256 _index) public {... */\n    tag_3:\n      tag_8\n      0x04\n      dup1\n      calldatasize\n      sub\n      dup2\n      add\n      swap1\n      tag_9\n      swap2\n      swap1\n      tag_10\n      jump\t// in\n    tag_9:\n      tag_11\n      jump\t// in\n    tag_8:\n      stop\n        /* \"contracts/Todos.sol\":456:557  function get(uint256 _index) public view returns(Todo memory) {... */\n    tag_4:\n      tag_12\n      0x04\n      dup1\n      calldatasize\n      sub\n      dup2\n      add\n      swap1\n      tag_13\n      swap2\n      swap1\n      tag_10\n      jump\t// in\n    tag_13:\n      tag_14\n      jump\t// in\n    tag_12:\n      mload(0x40)\n      tag_15\n      swap2\n      swap1\n      tag_16\n      jump\t// in\n    tag_15:\n      mload(0x40)\n      dup1\n      swap2\n      sub\n      swap1\n      return\n        /* \"contracts/Todos.sol\":154:448  function create(string calldata _text) public {... */\n    tag_5:\n      tag_17\n      0x04\n      dup1\n      calldatasize\n      sub\n      dup2\n      add\n      swap1\n      tag_18\n      swap2\n      swap1\n      tag_19\n      jump\t// in\n    tag_18:\n      tag_20\n      jump\t// in\n    tag_17:\n      stop\n        /* \"contracts/Todos.sol\":128:147  Todo[] public todos */\n    tag_6:\n      tag_21\n      0x04\n      dup1\n      calldatasize\n      sub\n      dup2\n      add\n      swap1\n      tag_22\n      swap2\n      swap1\n      tag_10\n      jump\t// in\n    tag_22:\n      tag_23\n      jump\t// in\n    tag_21:\n      mload(0x40)\n      tag_24\n      swap3\n      swap2\n      swap1\n      tag_25\n      jump\t// in\n    tag_24:\n      mload(0x40)\n      dup1\n      swap2\n      sub\n      swap1\n      return\n        /* \"contracts/Todos.sol\":565:702  function updateText(uint256 _index,string calldata _text) public {... */\n    tag_7:\n      tag_26\n      0x04\n      dup1\n      calldatasize\n      sub\n      dup2\n      add\n      swap1\n      tag_27\n      swap2\n      swap1\n      tag_28\n      jump\t// in\n    tag_27:\n      tag_29\n      jump\t// in\n    tag_26:\n      stop\n        /* \"contracts/Todos.sol\":710:844  function toggleCompleted(uint256 _index) public {... */\n    tag_11:\n        /* \"contracts/Todos.sol\":769:783  Todo storage o */\n      0x00\n        /* \"contracts/Todos.sol\":786:791  todos */\n      dup1\n        /* \"contracts/Todos.sol\":792:798  _index */\n      dup3\n        /* \"contracts/Todos.sol\":786:799  todos[_index] */\n      dup2\n      sload\n      dup2\n      lt\n      tag_31\n      jumpi\n      tag_32\n      tag_33\n      jump\t// in\n    tag_32:\n    tag_31:\n      swap1\n      0x00\n      mstore\n      keccak256(0x00, 0x20)\n      swap1\n      0x02\n      mul\n      add\n        /* \"contracts/Todos.sol\":769:799  Todo storage o = todos[_index] */\n      swap1\n      pop\n        /* \"contracts/Todos.sol\":825:826  o */\n      dup1\n        /* \"contracts/Todos.sol\":825:836  o.completed */\n      0x01\n      add\n      0x00\n      swap1\n      sload\n      swap1\n      0x0100\n      exp\n      swap1\n      div\n      0xff\n      and\n        /* \"contracts/Todos.sol\":824:836  !o.completed */\n      iszero\n        /* \"contracts/Todos.sol\":810:811  o */\n      dup2\n        /* \"contracts/Todos.sol\":810:821  o.completed */\n      0x01\n      add\n      0x00\n        /* \"contracts/Todos.sol\":810:836  o.completed = !o.completed */\n      0x0100\n      exp\n      dup2\n      sload\n      dup2\n      0xff\n      mul\n      not\n      and\n      swap1\n      dup4\n      iszero\n      iszero\n      mul\n      or\n      swap1\n      sstore\n      pop\n        /* \"contracts/Todos.sol\":758:844  {... */\n      pop\n        /* \"contracts/Todos.sol\":710:844  function toggleCompleted(uint256 _index) public {... */\n      pop\n      jump\t// out\n        /* \"contracts/Todos.sol\":456:557  function get(uint256 _index) public view returns(Todo memory) {... */\n    tag_14:\n        /* \"contracts/Todos.sol\":505:516  Todo memory */\n      tag_35\n      tag_36\n      jump\t// in\n    tag_35:\n        /* \"contracts/Todos.sol\":536:541  todos */\n      0x00\n        /* \"contracts/Todos.sol\":542:548  _index */\n      dup3\n        /* \"contracts/Todos.sol\":536:549  todos[_index] */\n      dup2\n      sload\n      dup2\n      lt\n      tag_38\n      jumpi\n      tag_39\n      tag_33\n      jump\t// in\n    tag_39:\n    tag_38:\n      swap1\n      0x00\n      mstore\n      keccak256(0x00, 0x20)\n      swap1\n      0x02\n      mul\n      add\n        /* \"contracts/Todos.sol\":529:549  return todos[_index] */\n      mload(0x40)\n      dup1\n      0x40\n      add\n      0x40\n      mstore\n      swap1\n      dup2\n      0x00\n      dup3\n      add\n      dup1\n      sload\n      tag_41\n      swap1\n      tag_42\n      jump\t// in\n    tag_41:\n      dup1\n      0x1f\n      add\n      0x20\n      dup1\n      swap2\n      div\n      mul\n      0x20\n      add\n      mload(0x40)\n      swap1\n      dup2\n      add\n      0x40\n      mstore\n      dup1\n      swap3\n      swap2\n      swap1\n      dup2\n      dup2\n      mstore\n      0x20\n      add\n      dup3\n      dup1\n      sload\n      tag_43\n      swap1\n      tag_42\n      jump\t// in\n    tag_43:\n      dup1\n      iszero\n      tag_44\n      jumpi\n      dup1\n      0x1f\n      lt\n      tag_45\n      jumpi\n      0x0100\n      dup1\n      dup4\n      sload\n      div\n      mul\n      dup4\n      mstore\n      swap2\n      0x20\n      add\n      swap2\n      jump(tag_44)\n    tag_45:\n      dup3\n      add\n      swap2\n      swap1\n      0x00\n      mstore\n      keccak256(0x00, 0x20)\n      swap1\n    tag_46:\n      dup2\n      sload\n      dup2\n      mstore\n      swap1\n      0x01\n      add\n      swap1\n      0x20\n      add\n      dup1\n      dup4\n      gt\n      tag_46\n      jumpi\n      dup3\n      swap1\n      sub\n      0x1f\n      and\n      dup3\n      add\n      swap2\n    tag_44:\n      pop\n      pop\n      pop\n      pop\n      pop\n      dup2\n      mstore\n      0x20\n      add\n      0x01\n      dup3\n      add\n      0x00\n      swap1\n      sload\n      swap1\n      0x0100\n      exp\n      swap1\n      div\n      0xff\n      and\n      iszero\n      iszero\n      iszero\n      iszero\n      dup2\n      mstore\n      pop\n      pop\n      swap1\n      pop\n        /* \"contracts/Todos.sol\":456:557  function get(uint256 _index) public view returns(Todo memory) {... */\n      swap2\n      swap1\n      pop\n      jump\t// out\n        /* \"contracts/Todos.sol\":154:448  function create(string calldata _text) public {... */\n    tag_20:\n        /* \"contracts/Todos.sol\":213:218  todos */\n      0x00\n        /* \"contracts/Todos.sol\":224:241  Todo(_text,false) */\n      mload(0x40)\n      dup1\n      0x40\n      add\n      0x40\n      mstore\n      dup1\n        /* \"contracts/Todos.sol\":229:234  _text */\n      dup5\n      dup5\n        /* \"contracts/Todos.sol\":224:241  Todo(_text,false) */\n      dup1\n      dup1\n      0x1f\n      add\n      0x20\n      dup1\n      swap2\n      div\n      mul\n      0x20\n      add\n      mload(0x40)\n      swap1\n      dup2\n      add\n      0x40\n      mstore\n      dup1\n      swap4\n      swap3\n      swap2\n      swap1\n      dup2\n      dup2\n      mstore\n      0x20\n      add\n      dup4\n      dup4\n      dup1\n      dup3\n      dup5\n      calldatacopy\n      0x00\n      dup2\n      dup5\n      add\n      mstore\n      not(0x1f)\n      0x1f\n      dup3\n      add\n      and\n      swap1\n      pop\n      dup1\n      dup4\n      add\n      swap3\n      pop\n      pop\n      pop\n      pop\n      pop\n      pop\n      pop\n      dup2\n      mstore\n      0x20\n      add\n        /* \"contracts/Todos.sol\":235:240  false */\n      0x00\n        /* \"contracts/Todos.sol\":224:241  Todo(_text,false) */\n      iszero\n      iszero\n      dup2\n      mstore\n      pop\n        /* \"contracts/Todos.sol\":213:242  todos.push(Todo(_text,false)) */\n      swap1\n      dup1\n      0x01\n      dup2\n      sload\n      add\n      dup1\n      dup3\n      sstore\n      dup1\n      swap2\n      pop\n      pop\n      0x01\n      swap1\n      sub\n      swap1\n      0x00\n      mstore\n      keccak256(0x00, 0x20)\n      swap1\n      0x02\n      mul\n      add\n      0x00\n      swap1\n      swap2\n      swap1\n      swap2\n      swap1\n      swap2\n      pop\n      0x00\n      dup3\n      add\n      mload\n      dup2\n      0x00\n      add\n      swap1\n      dup2\n      tag_49\n      swap2\n      swap1\n      tag_50\n      jump\t// in\n    tag_49:\n      pop\n      0x20\n      dup3\n      add\n      mload\n      dup2\n      0x01\n      add\n      exp(0x0100, 0x00)\n      dup2\n      sload\n      dup2\n      0xff\n      mul\n      not\n      and\n      swap1\n      dup4\n      iszero\n      iszero\n      mul\n      or\n      swap1\n      sstore\n      pop\n      pop\n      pop\n        /* \"contracts/Todos.sol\":253:258  todos */\n      0x00\n        /* \"contracts/Todos.sol\":264:336  Todo({... */\n      mload(0x40)\n      dup1\n      0x40\n      add\n      0x40\n      mstore\n      dup1\n        /* \"contracts/Todos.sol\":289:294  _text */\n      dup5\n      dup5\n        /* \"contracts/Todos.sol\":264:336  Todo({... */\n      dup1\n      dup1\n      0x1f\n      add\n      0x20\n      dup1\n      swap2\n      div\n      mul\n      0x20\n      add\n      mload(0x40)\n      swap1\n      dup2\n      add\n      0x40\n      mstore\n      dup1\n      swap4\n      swap3\n      swap2\n      swap1\n      dup2\n      dup2\n      mstore\n      0x20\n      add\n      dup4\n      dup4\n      dup1\n      dup3\n      dup5\n      calldatacopy\n      0x00\n      dup2\n      dup5\n      add\n      mstore\n      not(0x1f)\n      0x1f\n      dup3\n      add\n      and\n      swap1\n      pop\n      dup1\n      dup4\n      add\n      swap3\n      pop\n      pop\n      pop\n      pop\n      pop\n      pop\n      pop\n      dup2\n      mstore\n      0x20\n      add\n        /* \"contracts/Todos.sol\":319:324  false */\n      0x00\n        /* \"contracts/Todos.sol\":264:336  Todo({... */\n      iszero\n      iszero\n      dup2\n      mstore\n      pop\n        /* \"contracts/Todos.sol\":253:337  todos.push(Todo({... */\n      swap1\n      dup1\n      0x01\n      dup2\n      sload\n      add\n      dup1\n      dup3\n      sstore\n      dup1\n      swap2\n      pop\n      pop\n      0x01\n      swap1\n      sub\n      swap1\n      0x00\n      mstore\n      keccak256(0x00, 0x20)\n      swap1\n      0x02\n      mul\n      add\n      0x00\n      swap1\n      swap2\n      swap1\n      swap2\n      swap1\n      swap2\n      pop\n      0x00\n      dup3\n      add\n      mload\n      dup2\n      0x00\n      add\n      swap1\n      dup2\n      tag_52\n      swap2\n      swap1\n      tag_50\n      jump\t// in\n    tag_52:\n      pop\n      0x20\n      dup3\n      add\n      mload\n      dup2\n      0x01\n      add\n      exp(0x0100, 0x00)\n      dup2\n      sload\n      dup2\n      0xff\n      mul\n      not\n      and\n      swap1\n      dup4\n      iszero\n      iszero\n      mul\n      or\n      swap1\n      sstore\n      pop\n      pop\n      pop\n        /* \"contracts/Todos.sol\":348:361  Todo memory o */\n      tag_53\n      tag_36\n      jump\t// in\n    tag_53:\n        /* \"contracts/Todos.sol\":381:386  _text */\n      dup3\n      dup3\n        /* \"contracts/Todos.sol\":372:386  o.text = _text */\n      dup1\n      dup1\n      0x1f\n      add\n      0x20\n      dup1\n      swap2\n      div\n      mul\n      0x20\n      add\n      mload(0x40)\n      swap1\n      dup2\n      add\n      0x40\n      mstore\n      dup1\n      swap4\n      swap3\n      swap2\n      swap1\n      dup2\n      dup2\n      mstore\n      0x20\n      add\n      dup4\n      dup4\n      dup1\n      dup3\n      dup5\n      calldatacopy\n      0x00\n      dup2\n      dup5\n      add\n      mstore\n      not(0x1f)\n      0x1f\n      dup3\n      add\n      and\n      swap1\n      pop\n      dup1\n      dup4\n      add\n      swap3\n      pop\n      pop\n      pop\n      pop\n      pop\n      pop\n      pop\n        /* \"contracts/Todos.sol\":372:373  o */\n      dup2\n        /* \"contracts/Todos.sol\":372:378  o.text */\n      0x00\n      add\n        /* \"contracts/Todos.sol\":372:386  o.text = _text */\n      dup2\n      swap1\n      mstore\n      pop\n        /* \"contracts/Todos.sol\":411:416  false */\n      0x00\n        /* \"contracts/Todos.sol\":397:398  o */\n      dup2\n        /* \"contracts/Todos.sol\":397:408  o.completed */\n      0x20\n      add\n        /* \"contracts/Todos.sol\":397:416  o.completed = false */\n      swap1\n      iszero\n      iszero\n      swap1\n      dup2\n      iszero\n      iszero\n      dup2\n      mstore\n      pop\n      pop\n        /* \"contracts/Todos.sol\":427:432  todos */\n      0x00\n        /* \"contracts/Todos.sol\":438:439  o */\n      dup2\n        /* \"contracts/Todos.sol\":427:440  todos.push(o) */\n      swap1\n      dup1\n      0x01\n      dup2\n      sload\n      add\n      dup1\n      dup3\n      sstore\n      dup1\n      swap2\n      pop\n      pop\n      0x01\n      swap1\n      sub\n      swap1\n      0x00\n      mstore\n      keccak256(0x00, 0x20)\n      swap1\n      0x02\n      mul\n      add\n      0x00\n      swap1\n      swap2\n      swap1\n      swap2\n      swap1\n      swap2\n      pop\n      0x00\n      dup3\n      add\n      mload\n      dup2\n      0x00\n      add\n      swap1\n      dup2\n      tag_55\n      swap2\n      swap1\n      tag_50\n      jump\t// in\n    tag_55:\n      pop\n      0x20\n      dup3\n      add\n      mload\n      dup2\n      0x01\n      add\n      exp(0x0100, 0x00)\n      dup2\n      sload\n      dup2\n      0xff\n      mul\n      not\n      and\n      swap1\n      dup4\n      iszero\n      iszero\n      mul\n      or\n      swap1\n      sstore\n      pop\n      pop\n      pop\n        /* \"contracts/Todos.sol\":200:448  {... */\n      pop\n        /* \"contracts/Todos.sol\":154:448  function create(string calldata _text) public {... */\n      pop\n      pop\n      jump\t// out\n        /* \"contracts/Todos.sol\":128:147  Todo[] public todos */\n    tag_23:\n      0x00\n      dup2\n      dup2\n      sload\n      dup2\n      lt\n      tag_56\n      jumpi\n      0x00\n      dup1\n      revert\n    tag_56:\n      swap1\n      0x00\n      mstore\n      keccak256(0x00, 0x20)\n      swap1\n      0x02\n      mul\n      add\n      0x00\n      swap2\n      pop\n      swap1\n      pop\n      dup1\n      0x00\n      add\n      dup1\n      sload\n      tag_58\n      swap1\n      tag_42\n      jump\t// in\n    tag_58:\n      dup1\n      0x1f\n      add\n      0x20\n      dup1\n      swap2\n      div\n      mul\n      0x20\n      add\n      mload(0x40)\n      swap1\n      dup2\n      add\n      0x40\n      mstore\n      dup1\n      swap3\n      swap2\n      swap1\n      dup2\n      dup2\n      mstore\n      0x20\n      add\n      dup3\n      dup1\n      sload\n      tag_59\n      swap1\n      tag_42\n      jump\t// in\n    tag_59:\n      dup1\n      iszero\n      tag_60\n      jumpi\n      dup1\n      0x1f\n      lt\n      tag_61\n      jumpi\n      0x0100\n      dup1\n      dup4\n      sload\n      div\n      mul\n      dup4\n      mstore\n      swap2\n      0x20\n      add\n      swap2\n      jump(tag_60)\n    tag_61:\n      dup3\n      add\n      swap2\n      swap1\n      0x00\n      mstore\n      keccak256(0x00, 0x20)\n      swap1\n    tag_62:\n      dup2\n      sload\n      dup2\n      mstore\n      swap1\n      0x01\n      add\n      swap1\n      0x20\n      add\n      dup1\n      dup4\n      gt\n      tag_62\n      jumpi\n      dup3\n      swap1\n      sub\n      0x1f\n      and\n      dup3\n      add\n      swap2\n    tag_60:\n      pop\n      pop\n      pop\n      pop\n      pop\n      swap1\n      dup1\n      0x01\n      add\n      0x00\n      swap1\n      sload\n      swap1\n      0x0100\n      exp\n      swap1\n      div\n      0xff\n      and\n      swap1\n      pop\n      dup3\n      jump\t// out\n        /* \"contracts/Todos.sol\":565:702  function updateText(uint256 _index,string calldata _text) public {... */\n    tag_29:\n        /* \"contracts/Todos.sol\":640:654  Todo storage o */\n      0x00\n        /* \"contracts/Todos.sol\":657:662  todos */\n      dup1\n        /* \"contracts/Todos.sol\":663:669  _index */\n      dup5\n        /* \"contracts/Todos.sol\":657:670  todos[_index] */\n      dup2\n      sload\n      dup2\n      lt\n      tag_64\n      jumpi\n      tag_65\n      tag_33\n      jump\t// in\n    tag_65:\n    tag_64:\n      swap1\n      0x00\n      mstore\n      keccak256(0x00, 0x20)\n      swap1\n      0x02\n      mul\n      add\n        /* \"contracts/Todos.sol\":640:670  Todo storage o = todos[_index] */\n      swap1\n      pop\n        /* \"contracts/Todos.sol\":689:694  _text */\n      dup3\n      dup3\n        /* \"contracts/Todos.sol\":680:681  o */\n      dup3\n        /* \"contracts/Todos.sol\":680:686  o.text */\n      0x00\n      add\n        /* \"contracts/Todos.sol\":680:694  o.text = _text */\n      swap2\n      dup3\n      tag_67\n      swap3\n      swap2\n      swap1\n      tag_68\n      jump\t// in\n    tag_67:\n      pop\n        /* \"contracts/Todos.sol\":630:702  {... */\n      pop\n        /* \"contracts/Todos.sol\":565:702  function updateText(uint256 _index,string calldata _text) public {... */\n      pop\n      pop\n      pop\n      jump\t// out\n    tag_36:\n      mload(0x40)\n      dup1\n      0x40\n      add\n      0x40\n      mstore\n      dup1\n      0x60\n      dup2\n      mstore\n      0x20\n      add\n      iszero(iszero(0x00))\n      dup2\n      mstore\n      pop\n      swap1\n      jump\t// out\n        /* \"#utility.yul\":88:205   */\n    tag_70:\n        /* \"#utility.yul\":197:198   */\n      0x00\n        /* \"#utility.yul\":194:195   */\n      dup1\n        /* \"#utility.yul\":187:199   */\n      revert\n        /* \"#utility.yul\":211:328   */\n    tag_71:\n        /* \"#utility.yul\":320:321   */\n      0x00\n        /* \"#utility.yul\":317:318   */\n      dup1\n        /* \"#utility.yul\":310:322   */\n      revert\n        /* \"#utility.yul\":334:411   */\n    tag_72:\n        /* \"#utility.yul\":371:378   */\n      0x00\n        /* \"#utility.yul\":400:405   */\n      dup2\n        /* \"#utility.yul\":389:405   */\n      swap1\n      pop\n        /* \"#utility.yul\":334:411   */\n      swap2\n      swap1\n      pop\n      jump\t// out\n        /* \"#utility.yul\":417:539   */\n    tag_73:\n        /* \"#utility.yul\":490:514   */\n      tag_114\n        /* \"#utility.yul\":508:513   */\n      dup2\n        /* \"#utility.yul\":490:514   */\n      tag_72\n      jump\t// in\n    tag_114:\n        /* \"#utility.yul\":483:488   */\n      dup2\n        /* \"#utility.yul\":480:515   */\n      eq\n        /* \"#utility.yul\":470:533   */\n      tag_115\n      jumpi\n        /* \"#utility.yul\":529:530   */\n      0x00\n        /* \"#utility.yul\":526:527   */\n      dup1\n        /* \"#utility.yul\":519:531   */\n      revert\n        /* \"#utility.yul\":470:533   */\n    tag_115:\n        /* \"#utility.yul\":417:539   */\n      pop\n      jump\t// out\n        /* \"#utility.yul\":545:684   */\n    tag_74:\n        /* \"#utility.yul\":591:596   */\n      0x00\n        /* \"#utility.yul\":629:635   */\n      dup2\n        /* \"#utility.yul\":616:636   */\n      calldataload\n        /* \"#utility.yul\":607:636   */\n      swap1\n      pop\n        /* \"#utility.yul\":645:678   */\n      tag_117\n        /* \"#utility.yul\":672:677   */\n      dup2\n        /* \"#utility.yul\":645:678   */\n      tag_73\n      jump\t// in\n    tag_117:\n        /* \"#utility.yul\":545:684   */\n      swap3\n      swap2\n      pop\n      pop\n      jump\t// out\n        /* \"#utility.yul\":690:1019   */\n    tag_10:\n        /* \"#utility.yul\":749:755   */\n      0x00\n        /* \"#utility.yul\":798:800   */\n      0x20\n        /* \"#utility.yul\":786:795   */\n      dup3\n        /* \"#utility.yul\":777:784   */\n      dup5\n        /* \"#utility.yul\":773:796   */\n      sub\n        /* \"#utility.yul\":769:801   */\n      slt\n        /* \"#utility.yul\":766:885   */\n      iszero\n      tag_119\n      jumpi\n        /* \"#utility.yul\":804:883   */\n      tag_120\n      tag_70\n      jump\t// in\n    tag_120:\n        /* \"#utility.yul\":766:885   */\n    tag_119:\n        /* \"#utility.yul\":924:925   */\n      0x00\n        /* \"#utility.yul\":949:1002   */\n      tag_121\n        /* \"#utility.yul\":994:1001   */\n      dup5\n        /* \"#utility.yul\":985:991   */\n      dup3\n        /* \"#utility.yul\":974:983   */\n      dup6\n        /* \"#utility.yul\":970:992   */\n      add\n        /* \"#utility.yul\":949:1002   */\n      tag_74\n      jump\t// in\n    tag_121:\n        /* \"#utility.yul\":939:1002   */\n      swap2\n      pop\n        /* \"#utility.yul\":895:1012   */\n      pop\n        /* \"#utility.yul\":690:1019   */\n      swap3\n      swap2\n      pop\n      pop\n      jump\t// out\n        /* \"#utility.yul\":1025:1124   */\n    tag_75:\n        /* \"#utility.yul\":1077:1083   */\n      0x00\n        /* \"#utility.yul\":1111:1116   */\n      dup2\n        /* \"#utility.yul\":1105:1117   */\n      mload\n        /* \"#utility.yul\":1095:1117   */\n      swap1\n      pop\n        /* \"#utility.yul\":1025:1124   */\n      swap2\n      swap1\n      pop\n      jump\t// out\n        /* \"#utility.yul\":1130:1289   */\n    tag_76:\n        /* \"#utility.yul\":1204:1215   */\n      0x00\n        /* \"#utility.yul\":1238:1244   */\n      dup3\n        /* \"#utility.yul\":1233:1236   */\n      dup3\n        /* \"#utility.yul\":1226:1245   */\n      mstore\n        /* \"#utility.yul\":1278:1282   */\n      0x20\n        /* \"#utility.yul\":1273:1276   */\n      dup3\n        /* \"#utility.yul\":1269:1283   */\n      add\n        /* \"#utility.yul\":1254:1283   */\n      swap1\n      pop\n        /* \"#utility.yul\":1130:1289   */\n      swap3\n      swap2\n      pop\n      pop\n      jump\t// out\n        /* \"#utility.yul\":1295:1434   */\n    tag_77:\n        /* \"#utility.yul\":1384:1390   */\n      dup3\n        /* \"#utility.yul\":1379:1382   */\n      dup2\n        /* \"#utility.yul\":1374:1377   */\n      dup4\n        /* \"#utility.yul\":1368:1391   */\n      mcopy\n        /* \"#utility.yul\":1425:1426   */\n      0x00\n        /* \"#utility.yul\":1416:1422   */\n      dup4\n        /* \"#utility.yul\":1411:1414   */\n      dup4\n        /* \"#utility.yul\":1407:1423   */\n      add\n        /* \"#utility.yul\":1400:1427   */\n      mstore\n        /* \"#utility.yul\":1295:1434   */\n      pop\n      pop\n      pop\n      jump\t// out\n        /* \"#utility.yul\":1440:1542   */\n    tag_78:\n        /* \"#utility.yul\":1481:1487   */\n      0x00\n        /* \"#utility.yul\":1532:1534   */\n      0x1f\n        /* \"#utility.yul\":1528:1535   */\n      not\n        /* \"#utility.yul\":1523:1525   */\n      0x1f\n        /* \"#utility.yul\":1516:1521   */\n      dup4\n        /* \"#utility.yul\":1512:1526   */\n      add\n        /* \"#utility.yul\":1508:1536   */\n      and\n        /* \"#utility.yul\":1498:1536   */\n      swap1\n      pop\n        /* \"#utility.yul\":1440:1542   */\n      swap2\n      swap1\n      pop\n      jump\t// out\n        /* \"#utility.yul\":1548:1905   */\n    tag_79:\n        /* \"#utility.yul\":1626:1629   */\n      0x00\n        /* \"#utility.yul\":1654:1693   */\n      tag_127\n        /* \"#utility.yul\":1687:1692   */\n      dup3\n        /* \"#utility.yul\":1654:1693   */\n      tag_75\n      jump\t// in\n    tag_127:\n        /* \"#utility.yul\":1709:1770   */\n      tag_128\n        /* \"#utility.yul\":1763:1769   */\n      dup2\n        /* \"#utility.yul\":1758:1761   */\n      dup6\n        /* \"#utility.yul\":1709:1770   */\n      tag_76\n      jump\t// in\n    tag_128:\n        /* \"#utility.yul\":1702:1770   */\n      swap4\n      pop\n        /* \"#utility.yul\":1779:1844   */\n      tag_129\n        /* \"#utility.yul\":1837:1843   */\n      dup2\n        /* \"#utility.yul\":1832:1835   */\n      dup6\n        /* \"#utility.yul\":1825:1829   */\n      0x20\n        /* \"#utility.yul\":1818:1823   */\n      dup7\n        /* \"#utility.yul\":1814:1830   */\n      add\n        /* \"#utility.yul\":1779:1844   */\n      tag_77\n      jump\t// in\n    tag_129:\n        /* \"#utility.yul\":1869:1898   */\n      tag_130\n        /* \"#utility.yul\":1891:1897   */\n      dup2\n        /* \"#utility.yul\":1869:1898   */\n      tag_78\n      jump\t// in\n    tag_130:\n        /* \"#utility.yul\":1864:1867   */\n      dup5\n        /* \"#utility.yul\":1860:1899   */\n      add\n        /* \"#utility.yul\":1853:1899   */\n      swap2\n      pop\n        /* \"#utility.yul\":1630:1905   */\n      pop\n        /* \"#utility.yul\":1548:1905   */\n      swap3\n      swap2\n      pop\n      pop\n      jump\t// out\n        /* \"#utility.yul\":1911:2001   */\n    tag_80:\n        /* \"#utility.yul\":1945:1952   */\n      0x00\n        /* \"#utility.yul\":1988:1993   */\n      dup2\n        /* \"#utility.yul\":1981:1994   */\n      iszero\n        /* \"#utility.yul\":1974:1995   */\n      iszero\n        /* \"#utility.yul\":1963:1995   */\n      swap1\n      pop\n        /* \"#utility.yul\":1911:2001   */\n      swap2\n      swap1\n      pop\n      jump\t// out\n        /* \"#utility.yul\":2007:2106   */\n    tag_81:\n        /* \"#utility.yul\":2078:2099   */\n      tag_133\n        /* \"#utility.yul\":2093:2098   */\n      dup2\n        /* \"#utility.yul\":2078:2099   */\n      tag_80\n      jump\t// in\n    tag_133:\n        /* \"#utility.yul\":2073:2076   */\n      dup3\n        /* \"#utility.yul\":2066:2100   */\n      mstore\n        /* \"#utility.yul\":2007:2106   */\n      pop\n      pop\n      jump\t// out\n        /* \"#utility.yul\":2146:2739   */\n    tag_82:\n        /* \"#utility.yul\":2253:2256   */\n      0x00\n        /* \"#utility.yul\":2289:2293   */\n      0x40\n        /* \"#utility.yul\":2284:2287   */\n      dup4\n        /* \"#utility.yul\":2280:2294   */\n      add\n        /* \"#utility.yul\":2376:2380   */\n      0x00\n        /* \"#utility.yul\":2369:2374   */\n      dup4\n        /* \"#utility.yul\":2365:2381   */\n      add\n        /* \"#utility.yul\":2359:2382   */\n      mload\n        /* \"#utility.yul\":2429:2432   */\n      dup5\n        /* \"#utility.yul\":2423:2427   */\n      dup3\n        /* \"#utility.yul\":2419:2433   */\n      sub\n        /* \"#utility.yul\":2412:2416   */\n      0x00\n        /* \"#utility.yul\":2407:2410   */\n      dup7\n        /* \"#utility.yul\":2403:2417   */\n      add\n        /* \"#utility.yul\":2396:2434   */\n      mstore\n        /* \"#utility.yul\":2455:2528   */\n      tag_135\n        /* \"#utility.yul\":2523:2527   */\n      dup3\n        /* \"#utility.yul\":2509:2521   */\n      dup3\n        /* \"#utility.yul\":2455:2528   */\n      tag_79\n      jump\t// in\n    tag_135:\n        /* \"#utility.yul\":2447:2528   */\n      swap2\n      pop\n        /* \"#utility.yul\":2304:2539   */\n      pop\n        /* \"#utility.yul\":2626:2630   */\n      0x20\n        /* \"#utility.yul\":2619:2624   */\n      dup4\n        /* \"#utility.yul\":2615:2631   */\n      add\n        /* \"#utility.yul\":2609:2632   */\n      mload\n        /* \"#utility.yul\":2645:2702   */\n      tag_136\n        /* \"#utility.yul\":2696:2700   */\n      0x20\n        /* \"#utility.yul\":2691:2694   */\n      dup7\n        /* \"#utility.yul\":2687:2701   */\n      add\n        /* \"#utility.yul\":2673:2685   */\n      dup3\n        /* \"#utility.yul\":2645:2702   */\n      tag_81\n      jump\t// in\n    tag_136:\n        /* \"#utility.yul\":2549:2712   */\n      pop\n        /* \"#utility.yul\":2729:2733   */\n      dup1\n        /* \"#utility.yul\":2722:2733   */\n      swap2\n      pop\n        /* \"#utility.yul\":2258:2739   */\n      pop\n        /* \"#utility.yul\":2146:2739   */\n      swap3\n      swap2\n      pop\n      pop\n      jump\t// out\n        /* \"#utility.yul\":2745:3094   */\n    tag_16:\n        /* \"#utility.yul\":2876:2880   */\n      0x00\n        /* \"#utility.yul\":2914:2916   */\n      0x20\n        /* \"#utility.yul\":2903:2912   */\n      dup3\n        /* \"#utility.yul\":2899:2917   */\n      add\n        /* \"#utility.yul\":2891:2917   */\n      swap1\n      pop\n        /* \"#utility.yul\":2963:2972   */\n      dup2\n        /* \"#utility.yul\":2957:2961   */\n      dup2\n        /* \"#utility.yul\":2953:2973   */\n      sub\n        /* \"#utility.yul\":2949:2950   */\n      0x00\n        /* \"#utility.yul\":2938:2947   */\n      dup4\n        /* \"#utility.yul\":2934:2951   */\n      add\n        /* \"#utility.yul\":2927:2974   */\n      mstore\n        /* \"#utility.yul\":2991:3087   */\n      tag_138\n        /* \"#utility.yul\":3082:3086   */\n      dup2\n        /* \"#utility.yul\":3073:3079   */\n      dup5\n        /* \"#utility.yul\":2991:3087   */\n      tag_82\n      jump\t// in\n    tag_138:\n        /* \"#utility.yul\":2983:3087   */\n      swap1\n      pop\n        /* \"#utility.yul\":2745:3094   */\n      swap3\n      swap2\n      pop\n      pop\n      jump\t// out\n        /* \"#utility.yul\":3100:3217   */\n    tag_83:\n        /* \"#utility.yul\":3209:3210   */\n      0x00\n        /* \"#utility.yul\":3206:3207   */\n      dup1\n        /* \"#utility.yul\":3199:3211   */\n      revert\n        /* \"#utility.yul\":3223:3340   */\n    tag_84:\n        /* \"#utility.yul\":3332:3333   */\n      0x00\n        /* \"#utility.yul\":3329:3330   */\n      dup1\n        /* \"#utility.yul\":3322:3334   */\n      revert\n        /* \"#utility.yul\":3346:3463   */\n    tag_85:\n        /* \"#utility.yul\":3455:3456   */\n      0x00\n        /* \"#utility.yul\":3452:3453   */\n      dup1\n        /* \"#utility.yul\":3445:3457   */\n      revert\n        /* \"#utility.yul\":3483:4036   */\n    tag_86:\n        /* \"#utility.yul\":3541:3549   */\n      0x00\n        /* \"#utility.yul\":3551:3557   */\n      dup1\n        /* \"#utility.yul\":3601:3604   */\n      dup4\n        /* \"#utility.yul\":3594:3598   */\n      0x1f\n        /* \"#utility.yul\":3586:3592   */\n      dup5\n        /* \"#utility.yul\":3582:3599   */\n      add\n        /* \"#utility.yul\":3578:3605   */\n      slt\n        /* \"#utility.yul\":3568:3690   */\n      tag_143\n      jumpi\n        /* \"#utility.yul\":3609:3688   */\n      tag_144\n      tag_83\n      jump\t// in\n    tag_144:\n        /* \"#utility.yul\":3568:3690   */\n    tag_143:\n        /* \"#utility.yul\":3722:3728   */\n      dup3\n        /* \"#utility.yul\":3709:3729   */\n      calldataload\n        /* \"#utility.yul\":3699:3729   */\n      swap1\n      pop\n        /* \"#utility.yul\":3752:3770   */\n      0xffffffffffffffff\n        /* \"#utility.yul\":3744:3750   */\n      dup2\n        /* \"#utility.yul\":3741:3771   */\n      gt\n        /* \"#utility.yul\":3738:3855   */\n      iszero\n      tag_145\n      jumpi\n        /* \"#utility.yul\":3774:3853   */\n      tag_146\n      tag_84\n      jump\t// in\n    tag_146:\n        /* \"#utility.yul\":3738:3855   */\n    tag_145:\n        /* \"#utility.yul\":3888:3892   */\n      0x20\n        /* \"#utility.yul\":3880:3886   */\n      dup4\n        /* \"#utility.yul\":3876:3893   */\n      add\n        /* \"#utility.yul\":3864:3893   */\n      swap2\n      pop\n        /* \"#utility.yul\":3942:3945   */\n      dup4\n        /* \"#utility.yul\":3934:3938   */\n      0x01\n        /* \"#utility.yul\":3926:3932   */\n      dup3\n        /* \"#utility.yul\":3922:3939   */\n      mul\n        /* \"#utility.yul\":3912:3920   */\n      dup4\n        /* \"#utility.yul\":3908:3940   */\n      add\n        /* \"#utility.yul\":3905:3946   */\n      gt\n        /* \"#utility.yul\":3902:4030   */\n      iszero\n      tag_147\n      jumpi\n        /* \"#utility.yul\":3949:4028   */\n      tag_148\n      tag_85\n      jump\t// in\n    tag_148:\n        /* \"#utility.yul\":3902:4030   */\n    tag_147:\n        /* \"#utility.yul\":3483:4036   */\n      swap3\n      pop\n      swap3\n      swap1\n      pop\n      jump\t// out\n        /* \"#utility.yul\":4042:4571   */\n    tag_19:\n        /* \"#utility.yul\":4113:4119   */\n      0x00\n        /* \"#utility.yul\":4121:4127   */\n      dup1\n        /* \"#utility.yul\":4170:4172   */\n      0x20\n        /* \"#utility.yul\":4158:4167   */\n      dup4\n        /* \"#utility.yul\":4149:4156   */\n      dup6\n        /* \"#utility.yul\":4145:4168   */\n      sub\n        /* \"#utility.yul\":4141:4173   */\n      slt\n        /* \"#utility.yul\":4138:4257   */\n      iszero\n      tag_150\n      jumpi\n        /* \"#utility.yul\":4176:4255   */\n      tag_151\n      tag_70\n      jump\t// in\n    tag_151:\n        /* \"#utility.yul\":4138:4257   */\n    tag_150:\n        /* \"#utility.yul\":4324:4325   */\n      0x00\n        /* \"#utility.yul\":4313:4322   */\n      dup4\n        /* \"#utility.yul\":4309:4326   */\n      add\n        /* \"#utility.yul\":4296:4327   */\n      calldataload\n        /* \"#utility.yul\":4354:4372   */\n      0xffffffffffffffff\n        /* \"#utility.yul\":4346:4352   */\n      dup2\n        /* \"#utility.yul\":4343:4373   */\n      gt\n        /* \"#utility.yul\":4340:4457   */\n      iszero\n      tag_152\n      jumpi\n        /* \"#utility.yul\":4376:4455   */\n      tag_153\n      tag_71\n      jump\t// in\n    tag_153:\n        /* \"#utility.yul\":4340:4457   */\n    tag_152:\n        /* \"#utility.yul\":4489:4554   */\n      tag_154\n        /* \"#utility.yul\":4546:4553   */\n      dup6\n        /* \"#utility.yul\":4537:4543   */\n      dup3\n        /* \"#utility.yul\":4526:4535   */\n      dup7\n        /* \"#utility.yul\":4522:4544   */\n      add\n        /* \"#utility.yul\":4489:4554   */\n      tag_86\n      jump\t// in\n    tag_154:\n        /* \"#utility.yul\":4471:4554   */\n      swap3\n      pop\n      swap3\n      pop\n        /* \"#utility.yul\":4267:4564   */\n      pop\n        /* \"#utility.yul\":4042:4571   */\n      swap3\n      pop\n      swap3\n      swap1\n      pop\n      jump\t// out\n        /* \"#utility.yul\":4577:4746   */\n    tag_87:\n        /* \"#utility.yul\":4661:4672   */\n      0x00\n        /* \"#utility.yul\":4695:4701   */\n      dup3\n        /* \"#utility.yul\":4690:4693   */\n      dup3\n        /* \"#utility.yul\":4683:4702   */\n      mstore\n        /* \"#utility.yul\":4735:4739   */\n      0x20\n        /* \"#utility.yul\":4730:4733   */\n      dup3\n        /* \"#utility.yul\":4726:4740   */\n      add\n        /* \"#utility.yul\":4711:4740   */\n      swap1\n      pop\n        /* \"#utility.yul\":4577:4746   */\n      swap3\n      swap2\n      pop\n      pop\n      jump\t// out\n        /* \"#utility.yul\":4752:5129   */\n    tag_88:\n        /* \"#utility.yul\":4840:4843   */\n      0x00\n        /* \"#utility.yul\":4868:4907   */\n      tag_157\n        /* \"#utility.yul\":4901:4906   */\n      dup3\n        /* \"#utility.yul\":4868:4907   */\n      tag_75\n      jump\t// in\n    tag_157:\n        /* \"#utility.yul\":4923:4994   */\n      tag_158\n        /* \"#utility.yul\":4987:4993   */\n      dup2\n        /* \"#utility.yul\":4982:4985   */\n      dup6\n        /* \"#utility.yul\":4923:4994   */\n      tag_87\n      jump\t// in\n    tag_158:\n        /* \"#utility.yul\":4916:4994   */\n      swap4\n      pop\n        /* \"#utility.yul\":5003:5068   */\n      tag_159\n        /* \"#utility.yul\":5061:5067   */\n      dup2\n        /* \"#utility.yul\":5056:5059   */\n      dup6\n        /* \"#utility.yul\":5049:5053   */\n      0x20\n        /* \"#utility.yul\":5042:5047   */\n      dup7\n        /* \"#utility.yul\":5038:5054   */\n      add\n        /* \"#utility.yul\":5003:5068   */\n      tag_77\n      jump\t// in\n    tag_159:\n        /* \"#utility.yul\":5093:5122   */\n      tag_160\n        /* \"#utility.yul\":5115:5121   */\n      dup2\n        /* \"#utility.yul\":5093:5122   */\n      tag_78\n      jump\t// in\n    tag_160:\n        /* \"#utility.yul\":5088:5091   */\n      dup5\n        /* \"#utility.yul\":5084:5123   */\n      add\n        /* \"#utility.yul\":5077:5123   */\n      swap2\n      pop\n        /* \"#utility.yul\":4844:5129   */\n      pop\n        /* \"#utility.yul\":4752:5129   */\n      swap3\n      swap2\n      pop\n      pop\n      jump\t// out\n        /* \"#utility.yul\":5135:5244   */\n    tag_89:\n        /* \"#utility.yul\":5216:5237   */\n      tag_162\n        /* \"#utility.yul\":5231:5236   */\n      dup2\n        /* \"#utility.yul\":5216:5237   */\n      tag_80\n      jump\t// in\n    tag_162:\n        /* \"#utility.yul\":5211:5214   */\n      dup3\n        /* \"#utility.yul\":5204:5238   */\n      mstore\n        /* \"#utility.yul\":5135:5244   */\n      pop\n      pop\n      jump\t// out\n        /* \"#utility.yul\":5250:5661   */\n    tag_25:\n        /* \"#utility.yul\":5385:5389   */\n      0x00\n        /* \"#utility.yul\":5423:5425   */\n      0x40\n        /* \"#utility.yul\":5412:5421   */\n      dup3\n        /* \"#utility.yul\":5408:5426   */\n      add\n        /* \"#utility.yul\":5400:5426   */\n      swap1\n      pop\n        /* \"#utility.yul\":5472:5481   */\n      dup2\n        /* \"#utility.yul\":5466:5470   */\n      dup2\n        /* \"#utility.yul\":5462:5482   */\n      sub\n        /* \"#utility.yul\":5458:5459   */\n      0x00\n        /* \"#utility.yul\":5447:5456   */\n      dup4\n        /* \"#utility.yul\":5443:5460   */\n      add\n        /* \"#utility.yul\":5436:5483   */\n      mstore\n        /* \"#utility.yul\":5500:5578   */\n      tag_164\n        /* \"#utility.yul\":5573:5577   */\n      dup2\n        /* \"#utility.yul\":5564:5570   */\n      dup6\n        /* \"#utility.yul\":5500:5578   */\n      tag_88\n      jump\t// in\n    tag_164:\n        /* \"#utility.yul\":5492:5578   */\n      swap1\n      pop\n        /* \"#utility.yul\":5588:5654   */\n      tag_165\n        /* \"#utility.yul\":5650:5652   */\n      0x20\n        /* \"#utility.yul\":5639:5648   */\n      dup4\n        /* \"#utility.yul\":5635:5653   */\n      add\n        /* \"#utility.yul\":5626:5632   */\n      dup5\n        /* \"#utility.yul\":5588:5654   */\n      tag_89\n      jump\t// in\n    tag_165:\n        /* \"#utility.yul\":5250:5661   */\n      swap4\n      swap3\n      pop\n      pop\n      pop\n      jump\t// out\n        /* \"#utility.yul\":5667:6341   */\n    tag_28:\n        /* \"#utility.yul\":5747:5753   */\n      0x00\n        /* \"#utility.yul\":5755:5761   */\n      dup1\n        /* \"#utility.yul\":5763:5769   */\n      0x00\n        /* \"#utility.yul\":5812:5814   */\n      0x40\n        /* \"#utility.yul\":5800:5809   */\n      dup5\n        /* \"#utility.yul\":5791:5798   */\n      dup7\n        /* \"#utility.yul\":5787:5810   */\n      sub\n        /* \"#utility.yul\":5783:5815   */\n      slt\n        /* \"#utility.yul\":5780:5899   */\n      iszero\n      tag_167\n      jumpi\n        /* \"#utility.yul\":5818:5897   */\n      tag_168\n      tag_70\n      jump\t// in\n    tag_168:\n        /* \"#utility.yul\":5780:5899   */\n    tag_167:\n        /* \"#utility.yul\":5938:5939   */\n      0x00\n        /* \"#utility.yul\":5963:6016   */\n      tag_169\n        /* \"#utility.yul\":6008:6015   */\n      dup7\n        /* \"#utility.yul\":5999:6005   */\n      dup3\n        /* \"#utility.yul\":5988:5997   */\n      dup8\n        /* \"#utility.yul\":5984:6006   */\n      add\n        /* \"#utility.yul\":5963:6016   */\n      tag_74\n      jump\t// in\n    tag_169:\n        /* \"#utility.yul\":5953:6016   */\n      swap4\n      pop\n        /* \"#utility.yul\":5909:6026   */\n      pop\n        /* \"#utility.yul\":6093:6095   */\n      0x20\n        /* \"#utility.yul\":6082:6091   */\n      dup5\n        /* \"#utility.yul\":6078:6096   */\n      add\n        /* \"#utility.yul\":6065:6097   */\n      calldataload\n        /* \"#utility.yul\":6124:6142   */\n      0xffffffffffffffff\n        /* \"#utility.yul\":6116:6122   */\n      dup2\n        /* \"#utility.yul\":6113:6143   */\n      gt\n        /* \"#utility.yul\":6110:6227   */\n      iszero\n      tag_170\n      jumpi\n        /* \"#utility.yul\":6146:6225   */\n      tag_171\n      tag_71\n      jump\t// in\n    tag_171:\n        /* \"#utility.yul\":6110:6227   */\n    tag_170:\n        /* \"#utility.yul\":6259:6324   */\n      tag_172\n        /* \"#utility.yul\":6316:6323   */\n      dup7\n        /* \"#utility.yul\":6307:6313   */\n      dup3\n        /* \"#utility.yul\":6296:6305   */\n      dup8\n        /* \"#utility.yul\":6292:6314   */\n      add\n        /* \"#utility.yul\":6259:6324   */\n      tag_86\n      jump\t// in\n    tag_172:\n        /* \"#utility.yul\":6241:6324   */\n      swap3\n      pop\n      swap3\n      pop\n        /* \"#utility.yul\":6036:6334   */\n      pop\n        /* \"#utility.yul\":5667:6341   */\n      swap3\n      pop\n      swap3\n      pop\n      swap3\n      jump\t// out\n        /* \"#utility.yul\":6347:6527   */\n    tag_33:\n        /* \"#utility.yul\":6395:6472   */\n      0x4e487b7100000000000000000000000000000000000000000000000000000000\n        /* \"#utility.yul\":6392:6393   */\n      0x00\n        /* \"#utility.yul\":6385:6473   */\n      mstore\n        /* \"#utility.yul\":6492:6496   */\n      0x32\n        /* \"#utility.yul\":6489:6490   */\n      0x04\n        /* \"#utility.yul\":6482:6497   */\n      mstore\n        /* \"#utility.yul\":6516:6520   */\n      0x24\n        /* \"#utility.yul\":6513:6514   */\n      0x00\n        /* \"#utility.yul\":6506:6521   */\n      revert\n        /* \"#utility.yul\":6533:6713   */\n    tag_90:\n        /* \"#utility.yul\":6581:6658   */\n      0x4e487b7100000000000000000000000000000000000000000000000000000000\n        /* \"#utility.yul\":6578:6579   */\n      0x00\n        /* \"#utility.yul\":6571:6659   */\n      mstore\n        /* \"#utility.yul\":6678:6682   */\n      0x22\n        /* \"#utility.yul\":6675:6676   */\n      0x04\n        /* \"#utility.yul\":6668:6683   */\n      mstore\n        /* \"#utility.yul\":6702:6706   */\n      0x24\n        /* \"#utility.yul\":6699:6700   */\n      0x00\n        /* \"#utility.yul\":6692:6707   */\n      revert\n        /* \"#utility.yul\":6719:7039   */\n    tag_42:\n        /* \"#utility.yul\":6763:6769   */\n      0x00\n        /* \"#utility.yul\":6800:6801   */\n      0x02\n        /* \"#utility.yul\":6794:6798   */\n      dup3\n        /* \"#utility.yul\":6790:6802   */\n      div\n        /* \"#utility.yul\":6780:6802   */\n      swap1\n      pop\n        /* \"#utility.yul\":6847:6848   */\n      0x01\n        /* \"#utility.yul\":6841:6845   */\n      dup3\n        /* \"#utility.yul\":6837:6849   */\n      and\n        /* \"#utility.yul\":6868:6886   */\n      dup1\n        /* \"#utility.yul\":6858:6939   */\n      tag_176\n      jumpi\n        /* \"#utility.yul\":6924:6928   */\n      0x7f\n        /* \"#utility.yul\":6916:6922   */\n      dup3\n        /* \"#utility.yul\":6912:6929   */\n      and\n        /* \"#utility.yul\":6902:6929   */\n      swap2\n      pop\n        /* \"#utility.yul\":6858:6939   */\n    tag_176:\n        /* \"#utility.yul\":6986:6988   */\n      0x20\n        /* \"#utility.yul\":6978:6984   */\n      dup3\n        /* \"#utility.yul\":6975:6989   */\n      lt\n        /* \"#utility.yul\":6955:6973   */\n      dup2\n        /* \"#utility.yul\":6952:6990   */\n      sub\n        /* \"#utility.yul\":6949:7033   */\n      tag_177\n      jumpi\n        /* \"#utility.yul\":7005:7023   */\n      tag_178\n      tag_90\n      jump\t// in\n    tag_178:\n        /* \"#utility.yul\":6949:7033   */\n    tag_177:\n        /* \"#utility.yul\":6770:7039   */\n      pop\n        /* \"#utility.yul\":6719:7039   */\n      swap2\n      swap1\n      pop\n      jump\t// out\n        /* \"#utility.yul\":7045:7225   */\n    tag_91:\n        /* \"#utility.yul\":7093:7170   */\n      0x4e487b7100000000000000000000000000000000000000000000000000000000\n        /* \"#utility.yul\":7090:7091   */\n      0x00\n        /* \"#utility.yul\":7083:7171   */\n      mstore\n        /* \"#utility.yul\":7190:7194   */\n      0x41\n        /* \"#utility.yul\":7187:7188   */\n      0x04\n        /* \"#utility.yul\":7180:7195   */\n      mstore\n        /* \"#utility.yul\":7214:7218   */\n      0x24\n        /* \"#utility.yul\":7211:7212   */\n      0x00\n        /* \"#utility.yul\":7204:7219   */\n      revert\n        /* \"#utility.yul\":7231:7372   */\n    tag_92:\n        /* \"#utility.yul\":7280:7284   */\n      0x00\n        /* \"#utility.yul\":7303:7306   */\n      dup2\n        /* \"#utility.yul\":7295:7306   */\n      swap1\n      pop\n        /* \"#utility.yul\":7326:7329   */\n      dup2\n        /* \"#utility.yul\":7323:7324   */\n      0x00\n        /* \"#utility.yul\":7316:7330   */\n      mstore\n        /* \"#utility.yul\":7360:7364   */\n      0x20\n        /* \"#utility.yul\":7357:7358   */\n      0x00\n        /* \"#utility.yul\":7347:7365   */\n      keccak256\n        /* \"#utility.yul\":7339:7365   */\n      swap1\n      pop\n        /* \"#utility.yul\":7231:7372   */\n      swap2\n      swap1\n      pop\n      jump\t// out\n        /* \"#utility.yul\":7378:7471   */\n    tag_93:\n        /* \"#utility.yul\":7415:7421   */\n      0x00\n        /* \"#utility.yul\":7462:7464   */\n      0x20\n        /* \"#utility.yul\":7457:7459   */\n      0x1f\n        /* \"#utility.yul\":7450:7455   */\n      dup4\n        /* \"#utility.yul\":7446:7460   */\n      add\n        /* \"#utility.yul\":7442:7465   */\n      div\n        /* \"#utility.yul\":7432:7465   */\n      swap1\n      pop\n        /* \"#utility.yul\":7378:7471   */\n      swap2\n      swap1\n      pop\n      jump\t// out\n        /* \"#utility.yul\":7477:7584   */\n    tag_94:\n        /* \"#utility.yul\":7521:7529   */\n      0x00\n        /* \"#utility.yul\":7571:7576   */\n      dup3\n        /* \"#utility.yul\":7565:7569   */\n      dup3\n        /* \"#utility.yul\":7561:7577   */\n      shl\n        /* \"#utility.yul\":7540:7577   */\n      swap1\n      pop\n        /* \"#utility.yul\":7477:7584   */\n      swap3\n      swap2\n      pop\n      pop\n      jump\t// out\n        /* \"#utility.yul\":7590:7983   */\n    tag_95:\n        /* \"#utility.yul\":7659:7665   */\n      0x00\n        /* \"#utility.yul\":7709:7710   */\n      0x08\n        /* \"#utility.yul\":7697:7707   */\n      dup4\n        /* \"#utility.yul\":7693:7711   */\n      mul\n        /* \"#utility.yul\":7732:7829   */\n      tag_184\n        /* \"#utility.yul\":7762:7828   */\n      0xffffffffffffffffffffffffffffffffffffffffffffffffffffffffffffffff\n        /* \"#utility.yul\":7751:7760   */\n      dup3\n        /* \"#utility.yul\":7732:7829   */\n      tag_94\n      jump\t// in\n    tag_184:\n        /* \"#utility.yul\":7850:7889   */\n      tag_185\n        /* \"#utility.yul\":7880:7888   */\n      dup7\n        /* \"#utility.yul\":7869:7878   */\n      dup4\n        /* \"#utility.yul\":7850:7889   */\n      tag_94\n      jump\t// in\n    tag_185:\n        /* \"#utility.yul\":7838:7889   */\n      swap6\n      pop\n        /* \"#utility.yul\":7922:7926   */\n      dup1\n        /* \"#utility.yul\":7918:7927   */\n      not\n        /* \"#utility.yul\":7911:7916   */\n      dup5\n        /* \"#utility.yul\":7907:7928   */\n      and\n        /* \"#utility.yul\":7898:7928   */\n      swap4\n      pop\n        /* \"#utility.yul\":7971:7975   */\n      dup1\n        /* \"#utility.yul\":7961:7969   */\n      dup7\n        /* \"#utility.yul\":7957:7976   */\n      and\n        /* \"#utility.yul\":7950:7955   */\n      dup5\n        /* \"#utility.yul\":7947:7977   */\n      or\n        /* \"#utility.yul\":7937:7977   */\n      swap3\n      pop\n        /* \"#utility.yul\":7666:7983   */\n      pop\n      pop\n        /* \"#utility.yul\":7590:7983   */\n      swap4\n      swap3\n      pop\n      pop\n      pop\n      jump\t// out\n        /* \"#utility.yul\":7989:8049   */\n    tag_96:\n        /* \"#utility.yul\":8017:8020   */\n      0x00\n        /* \"#utility.yul\":8038:8043   */\n      dup2\n        /* \"#utility.yul\":8031:8043   */\n      swap1\n      pop\n        /* \"#utility.yul\":7989:8049   */\n      swap2\n      swap1\n      pop\n      jump\t// out\n        /* \"#utility.yul\":8055:8197   */\n    tag_97:\n        /* \"#utility.yul\":8105:8114   */\n      0x00\n        /* \"#utility.yul\":8138:8191   */\n      tag_188\n        /* \"#utility.yul\":8156:8190   */\n      tag_189\n        /* \"#utility.yul\":8165:8189   */\n      tag_190\n        /* \"#utility.yul\":8183:8188   */\n      dup5\n        /* \"#utility.yul\":8165:8189   */\n      tag_72\n      jump\t// in\n    tag_190:\n        /* \"#utility.yul\":8156:8190   */\n      tag_96\n      jump\t// in\n    tag_189:\n        /* \"#utility.yul\":8138:8191   */\n      tag_72\n      jump\t// in\n    tag_188:\n        /* \"#utility.yul\":8125:8191   */\n      swap1\n      pop\n        /* \"#utility.yul\":8055:8197   */\n      swap2\n      swap1\n      pop\n      jump\t// out\n        /* \"#utility.yul\":8203:8278   */\n    tag_98:\n        /* \"#utility.yul\":8246:8249   */\n      0x00\n        /* \"#utility.yul\":8267:8272   */\n      dup2\n        /* \"#utility.yul\":8260:8272   */\n      swap1\n      pop\n        /* \"#utility.yul\":8203:8278   */\n      swap2\n      swap1\n      pop\n      jump\t// out\n        /* \"#utility.yul\":8284:8553   */\n    tag_99:\n        /* \"#utility.yul\":8394:8433   */\n      tag_193\n        /* \"#utility.yul\":8425:8432   */\n      dup4\n        /* \"#utility.yul\":8394:8433   */\n      tag_97\n      jump\t// in\n    tag_193:\n        /* \"#utility.yul\":8455:8546   */\n      tag_194\n        /* \"#utility.yul\":8504:8545   */\n      tag_195\n        /* \"#utility.yul\":8528:8544   */\n      dup3\n        /* \"#utility.yul\":8504:8545   */\n      tag_98\n      jump\t// in\n    tag_195:\n        /* \"#utility.yul\":8496:8502   */\n      dup5\n        /* \"#utility.yul\":8489:8493   */\n      dup5\n        /* \"#utility.yul\":8483:8494   */\n      sload\n        /* \"#utility.yul\":8455:8546   */\n      tag_95\n      jump\t// in\n    tag_194:\n        /* \"#utility.yul\":8449:8453   */\n      dup3\n        /* \"#utility.yul\":8442:8547   */\n      sstore\n        /* \"#utility.yul\":8360:8553   */\n      pop\n        /* \"#utility.yul\":8284:8553   */\n      pop\n      pop\n      pop\n      jump\t// out\n        /* \"#utility.yul\":8559:8632   */\n    tag_100:\n        /* \"#utility.yul\":8604:8607   */\n      0x00\n        /* \"#utility.yul\":8559:8632   */\n      swap1\n      jump\t// out\n        /* \"#utility.yul\":8638:8827   */\n    tag_101:\n        /* \"#utility.yul\":8715:8747   */\n      tag_198\n      tag_100\n      jump\t// in\n    tag_198:\n        /* \"#utility.yul\":8756:8821   */\n      tag_199\n        /* \"#utility.yul\":8814:8820   */\n      dup2\n        /* \"#utility.yul\":8806:8812   */\n      dup5\n        /* \"#utility.yul\":8800:8804   */\n      dup5\n        /* \"#utility.yul\":8756:8821   */\n      tag_99\n      jump\t// in\n    tag_199:\n        /* \"#utility.yul\":8691:8827   */\n      pop\n        /* \"#utility.yul\":8638:8827   */\n      pop\n      pop\n      jump\t// out\n        /* \"#utility.yul\":8833:9019   */\n    tag_102:\n        /* \"#utility.yul\":8893:9013   */\n    tag_201:\n        /* \"#utility.yul\":8910:8913   */\n      dup2\n        /* \"#utility.yul\":8903:8908   */\n      dup2\n        /* \"#utility.yul\":8900:8914   */\n      lt\n        /* \"#utility.yul\":8893:9013   */\n      iszero\n      tag_203\n      jumpi\n        /* \"#utility.yul\":8964:9003   */\n      tag_204\n        /* \"#utility.yul\":9001:9002   */\n      0x00\n        /* \"#utility.yul\":8994:8999   */\n      dup3\n        /* \"#utility.yul\":8964:9003   */\n      tag_101\n      jump\t// in\n    tag_204:\n        /* \"#utility.yul\":8937:8938   */\n      0x01\n        /* \"#utility.yul\":8930:8935   */\n      dup2\n        /* \"#utility.yul\":8926:8939   */\n      add\n        /* \"#utility.yul\":8917:8939   */\n      swap1\n      pop\n        /* \"#utility.yul\":8893:9013   */\n      jump(tag_201)\n    tag_203:\n        /* \"#utility.yul\":8833:9019   */\n      pop\n      pop\n      jump\t// out\n        /* \"#utility.yul\":9025:9568   */\n    tag_103:\n        /* \"#utility.yul\":9126:9128   */\n      0x1f\n        /* \"#utility.yul\":9121:9124   */\n      dup3\n        /* \"#utility.yul\":9118:9129   */\n      gt\n        /* \"#utility.yul\":9115:9561   */\n      iszero\n      tag_206\n      jumpi\n        /* \"#utility.yul\":9160:9198   */\n      tag_207\n        /* \"#utility.yul\":9192:9197   */\n      dup2\n        /* \"#utility.yul\":9160:9198   */\n      tag_92\n      jump\t// in\n    tag_207:\n        /* \"#utility.yul\":9244:9273   */\n      tag_208\n        /* \"#utility.yul\":9262:9272   */\n      dup5\n        /* \"#utility.yul\":9244:9273   */\n      tag_93\n      jump\t// in\n    tag_208:\n        /* \"#utility.yul\":9234:9242   */\n      dup2\n        /* \"#utility.yul\":9230:9274   */\n      add\n        /* \"#utility.yul\":9427:9429   */\n      0x20\n        /* \"#utility.yul\":9415:9425   */\n      dup6\n        /* \"#utility.yul\":9412:9430   */\n      lt\n        /* \"#utility.yul\":9409:9458   */\n      iszero\n      tag_209\n      jumpi\n        /* \"#utility.yul\":9448:9456   */\n      dup2\n        /* \"#utility.yul\":9433:9456   */\n      swap1\n      pop\n        /* \"#utility.yul\":9409:9458   */\n    tag_209:\n        /* \"#utility.yul\":9471:9551   */\n      tag_210\n        /* \"#utility.yul\":9527:9549   */\n      tag_211\n        /* \"#utility.yul\":9545:9548   */\n      dup6\n        /* \"#utility.yul\":9527:9549   */\n      tag_93\n      jump\t// in\n    tag_211:\n        /* \"#utility.yul\":9517:9525   */\n      dup4\n        /* \"#utility.yul\":9513:9550   */\n      add\n        /* \"#utility.yul\":9500:9511   */\n      dup3\n        /* \"#utility.yul\":9471:9551   */\n      tag_102\n      jump\t// in\n    tag_210:\n        /* \"#utility.yul\":9130:9561   */\n      pop\n      pop\n        /* \"#utility.yul\":9115:9561   */\n    tag_206:\n        /* \"#utility.yul\":9025:9568   */\n      pop\n      pop\n      pop\n      jump\t// out\n        /* \"#utility.yul\":9574:9691   */\n    tag_104:\n        /* \"#utility.yul\":9628:9636   */\n      0x00\n        /* \"#utility.yul\":9678:9683   */\n      dup3\n        /* \"#utility.yul\":9672:9676   */\n      dup3\n        /* \"#utility.yul\":9668:9684   */\n      shr\n        /* \"#utility.yul\":9647:9684   */\n      swap1\n      pop\n        /* \"#utility.yul\":9574:9691   */\n      swap3\n      swap2\n      pop\n      pop\n      jump\t// out\n        /* \"#utility.yul\":9697:9866   */\n    tag_105:\n        /* \"#utility.yul\":9741:9747   */\n      0x00\n        /* \"#utility.yul\":9774:9825   */\n      tag_214\n        /* \"#utility.yul\":9822:9823   */\n      0x00\n        /* \"#utility.yul\":9818:9824   */\n      not\n        /* \"#utility.yul\":9810:9815   */\n      dup5\n        /* \"#utility.yul\":9807:9808   */\n      0x08\n        /* \"#utility.yul\":9803:9816   */\n      mul\n        /* \"#utility.yul\":9774:9825   */\n      tag_104\n      jump\t// in\n    tag_214:\n        /* \"#utility.yul\":9770:9826   */\n      not\n        /* \"#utility.yul\":9855:9859   */\n      dup1\n        /* \"#utility.yul\":9849:9853   */\n      dup4\n        /* \"#utility.yul\":9845:9860   */\n      and\n        /* \"#utility.yul\":9835:9860   */\n      swap2\n      pop\n        /* \"#utility.yul\":9748:9866   */\n      pop\n        /* \"#utility.yul\":9697:9866   */\n      swap3\n      swap2\n      pop\n      pop\n      jump\t// out\n        /* \"#utility.yul\":9871:10166   */\n    tag_106:\n        /* \"#utility.yul\":9947:9951   */\n      0x00\n        /* \"#utility.yul\":10093:10122   */\n      tag_216\n        /* \"#utility.yul\":10118:10121   */\n      dup4\n        /* \"#utility.yul\":10112:10116   */\n      dup4\n        /* \"#utility.yul\":10093:10122   */\n      tag_105\n      jump\t// in\n    tag_216:\n        /* \"#utility.yul\":10085:10122   */\n      swap2\n      pop\n        /* \"#utility.yul\":10155:10158   */\n      dup3\n        /* \"#utility.yul\":10152:10153   */\n      0x02\n        /* \"#utility.yul\":10148:10159   */\n      mul\n        /* \"#utility.yul\":10142:10146   */\n      dup3\n        /* \"#utility.yul\":10139:10160   */\n      or\n        /* \"#utility.yul\":10131:10160   */\n      swap1\n      pop\n        /* \"#utility.yul\":9871:10166   */\n      swap3\n      swap2\n      pop\n      pop\n      jump\t// out\n        /* \"#utility.yul\":10171:11566   */\n    tag_50:\n        /* \"#utility.yul\":10288:10325   */\n      tag_218\n        /* \"#utility.yul\":10321:10324   */\n      dup3\n        /* \"#utility.yul\":10288:10325   */\n      tag_75\n      jump\t// in\n    tag_218:\n        /* \"#utility.yul\":10390:10408   */\n      0xffffffffffffffff\n        /* \"#utility.yul\":10382:10388   */\n      dup2\n        /* \"#utility.yul\":10379:10409   */\n      gt\n        /* \"#utility.yul\":10376:10432   */\n      iszero\n      tag_219\n      jumpi\n        /* \"#utility.yul\":10412:10430   */\n      tag_220\n      tag_91\n      jump\t// in\n    tag_220:\n        /* \"#utility.yul\":10376:10432   */\n    tag_219:\n        /* \"#utility.yul\":10456:10494   */\n      tag_221\n        /* \"#utility.yul\":10488:10492   */\n      dup3\n        /* \"#utility.yul\":10482:10493   */\n      sload\n        /* \"#utility.yul\":10456:10494   */\n      tag_42\n      jump\t// in\n    tag_221:\n        /* \"#utility.yul\":10541:10608   */\n      tag_222\n        /* \"#utility.yul\":10601:10607   */\n      dup3\n        /* \"#utility.yul\":10593:10599   */\n      dup3\n        /* \"#utility.yul\":10587:10591   */\n      dup6\n        /* \"#utility.yul\":10541:10608   */\n      tag_103\n      jump\t// in\n    tag_222:\n        /* \"#utility.yul\":10635:10636   */\n      0x00\n        /* \"#utility.yul\":10659:10663   */\n      0x20\n        /* \"#utility.yul\":10646:10663   */\n      swap1\n      pop\n        /* \"#utility.yul\":10691:10693   */\n      0x1f\n        /* \"#utility.yul\":10683:10689   */\n      dup4\n        /* \"#utility.yul\":10680:10694   */\n      gt\n        /* \"#utility.yul\":10708:10709   */\n      0x01\n        /* \"#utility.yul\":10703:11321   */\n      dup2\n      eq\n      tag_224\n      jumpi\n        /* \"#utility.yul\":11365:11366   */\n      0x00\n        /* \"#utility.yul\":11382:11388   */\n      dup5\n        /* \"#utility.yul\":11379:11456   */\n      iszero\n      tag_225\n      jumpi\n        /* \"#utility.yul\":11431:11440   */\n      dup3\n        /* \"#utility.yul\":11426:11429   */\n      dup8\n        /* \"#utility.yul\":11422:11441   */\n      add\n        /* \"#utility.yul\":11416:11442   */\n      mload\n        /* \"#utility.yul\":11407:11442   */\n      swap1\n      pop\n        /* \"#utility.yul\":11379:11456   */\n    tag_225:\n        /* \"#utility.yul\":11482:11549   */\n      tag_226\n        /* \"#utility.yul\":11542:11548   */\n      dup6\n        /* \"#utility.yul\":11535:11540   */\n      dup3\n        /* \"#utility.yul\":11482:11549   */\n      tag_106\n      jump\t// in\n    tag_226:\n        /* \"#utility.yul\":11476:11480   */\n      dup7\n        /* \"#utility.yul\":11469:11550   */\n      sstore\n        /* \"#utility.yul\":11338:11560   */\n      pop\n        /* \"#utility.yul\":10673:11560   */\n      jump(tag_223)\n        /* \"#utility.yul\":10703:11321   */\n    tag_224:\n        /* \"#utility.yul\":10755:10759   */\n      0x1f\n        /* \"#utility.yul\":10751:10760   */\n      not\n        /* \"#utility.yul\":10743:10749   */\n      dup5\n        /* \"#utility.yul\":10739:10761   */\n      and\n        /* \"#utility.yul\":10789:10826   */\n      tag_227\n        /* \"#utility.yul\":10821:10825   */\n      dup7\n        /* \"#utility.yul\":10789:10826   */\n      tag_92\n      jump\t// in\n    tag_227:\n        /* \"#utility.yul\":10848:10849   */\n      0x00\n        /* \"#utility.yul\":10862:11070   */\n    tag_228:\n        /* \"#utility.yul\":10876:10883   */\n      dup3\n        /* \"#utility.yul\":10873:10874   */\n      dup2\n        /* \"#utility.yul\":10870:10884   */\n      lt\n        /* \"#utility.yul\":10862:11070   */\n      iszero\n      tag_230\n      jumpi\n        /* \"#utility.yul\":10955:10964   */\n      dup5\n        /* \"#utility.yul\":10950:10953   */\n      dup10\n        /* \"#utility.yul\":10946:10965   */\n      add\n        /* \"#utility.yul\":10940:10966   */\n      mload\n        /* \"#utility.yul\":10932:10938   */\n      dup3\n        /* \"#utility.yul\":10925:10967   */\n      sstore\n        /* \"#utility.yul\":11006:11007   */\n      0x01\n        /* \"#utility.yul\":10998:11004   */\n      dup3\n        /* \"#utility.yul\":10994:11008   */\n      add\n        /* \"#utility.yul\":10984:11008   */\n      swap2\n      pop\n        /* \"#utility.yul\":11053:11055   */\n      0x20\n        /* \"#utility.yul\":11042:11051   */\n      dup6\n        /* \"#utility.yul\":11038:11056   */\n      add\n        /* \"#utility.yul\":11025:11056   */\n      swap5\n      pop\n        /* \"#utility.yul\":10899:10903   */\n      0x20\n        /* \"#utility.yul\":10896:10897   */\n      dup2\n        /* \"#utility.yul\":10892:10904   */\n      add\n        /* \"#utility.yul\":10887:10904   */\n      swap1\n      pop\n        /* \"#utility.yul\":10862:11070   */\n      jump(tag_228)\n    tag_230:\n        /* \"#utility.yul\":11098:11104   */\n      dup7\n        /* \"#utility.yul\":11089:11096   */\n      dup4\n        /* \"#utility.yul\":11086:11105   */\n      lt\n        /* \"#utility.yul\":11083:11262   */\n      iszero\n      tag_231\n      jumpi\n        /* \"#utility.yul\":11156:11165   */\n      dup5\n        /* \"#utility.yul\":11151:11154   */\n      dup10\n        /* \"#utility.yul\":11147:11166   */\n      add\n        /* \"#utility.yul\":11141:11167   */\n      mload\n        /* \"#utility.yul\":11199:11247   */\n      tag_232\n        /* \"#utility.yul\":11241:11245   */\n      0x1f\n        /* \"#utility.yul\":11233:11239   */\n      dup10\n        /* \"#utility.yul\":11229:11246   */\n      and\n        /* \"#utility.yul\":11218:11227   */\n      dup3\n        /* \"#utility.yul\":11199:11247   */\n      tag_105\n      jump\t// in\n    tag_232:\n        /* \"#utility.yul\":11191:11197   */\n      dup4\n        /* \"#utility.yul\":11184:11248   */\n      sstore\n        /* \"#utility.yul\":11106:11262   */\n      pop\n        /* \"#utility.yul\":11083:11262   */\n    tag_231:\n        /* \"#utility.yul\":11308:11309   */\n      0x01\n        /* \"#utility.yul\":11304:11305   */\n      0x02\n        /* \"#utility.yul\":11296:11302   */\n      dup9\n        /* \"#utility.yul\":11292:11306   */\n      mul\n        /* \"#utility.yul\":11288:11310   */\n      add\n        /* \"#utility.yul\":11282:11286   */\n      dup9\n        /* \"#utility.yul\":11275:11311   */\n      sstore\n        /* \"#utility.yul\":10710:11321   */\n      pop\n      pop\n      pop\n        /* \"#utility.yul\":10673:11560   */\n    tag_223:\n      pop\n        /* \"#utility.yul\":10263:11566   */\n      pop\n      pop\n      pop\n        /* \"#utility.yul\":10171:11566   */\n      pop\n      pop\n      jump\t// out\n        /* \"#utility.yul\":11572:11669   */\n    tag_107:\n        /* \"#utility.yul\":11631:11637   */\n      0x00\n        /* \"#utility.yul\":11659:11662   */\n      dup3\n        /* \"#utility.yul\":11649:11662   */\n      swap1\n      pop\n        /* \"#utility.yul\":11572:11669   */\n      swap3\n      swap2\n      pop\n      pop\n      jump\t// out\n        /* \"#utility.yul\":11675:13078   */\n    tag_68:\n        /* \"#utility.yul\":11799:11843   */\n      tag_235\n        /* \"#utility.yul\":11839:11842   */\n      dup4\n        /* \"#utility.yul\":11834:11837   */\n      dup4\n        /* \"#utility.yul\":11799:11843   */\n      tag_107\n      jump\t// in\n    tag_235:\n        /* \"#utility.yul\":11908:11926   */\n      0xffffffffffffffff\n        /* \"#utility.yul\":11900:11906   */\n      dup2\n        /* \"#utility.yul\":11897:11927   */\n      gt\n        /* \"#utility.yul\":11894:11950   */\n      iszero\n      tag_236\n      jumpi\n        /* \"#utility.yul\":11930:11948   */\n      tag_237\n      tag_91\n      jump\t// in\n    tag_237:\n        /* \"#utility.yul\":11894:11950   */\n    tag_236:\n        /* \"#utility.yul\":11974:12012   */\n      tag_238\n        /* \"#utility.yul\":12006:12010   */\n      dup3\n        /* \"#utility.yul\":12000:12011   */\n      sload\n        /* \"#utility.yul\":11974:12012   */\n      tag_42\n      jump\t// in\n    tag_238:\n        /* \"#utility.yul\":12059:12126   */\n      tag_239\n        /* \"#utility.yul\":12119:12125   */\n      dup3\n        /* \"#utility.yul\":12111:12117   */\n      dup3\n        /* \"#utility.yul\":12105:12109   */\n      dup6\n        /* \"#utility.yul\":12059:12126   */\n      tag_103\n      jump\t// in\n    tag_239:\n        /* \"#utility.yul\":12153:12154   */\n      0x00\n        /* \"#utility.yul\":12182:12184   */\n      0x1f\n        /* \"#utility.yul\":12174:12180   */\n      dup4\n        /* \"#utility.yul\":12171:12185   */\n      gt\n        /* \"#utility.yul\":12199:12200   */\n      0x01\n        /* \"#utility.yul\":12194:12826   */\n      dup2\n      eq\n      tag_241\n      jumpi\n        /* \"#utility.yul\":12870:12871   */\n      0x00\n        /* \"#utility.yul\":12887:12893   */\n      dup5\n        /* \"#utility.yul\":12884:12968   */\n      iszero\n      tag_242\n      jumpi\n        /* \"#utility.yul\":12943:12952   */\n      dup3\n        /* \"#utility.yul\":12938:12941   */\n      dup8\n        /* \"#utility.yul\":12934:12953   */\n      add\n        /* \"#utility.yul\":12921:12954   */\n      calldataload\n        /* \"#utility.yul\":12912:12954   */\n      swap1\n      pop\n        /* \"#utility.yul\":12884:12968   */\n    tag_242:\n        /* \"#utility.yul\":12994:13061   */\n      tag_243\n        /* \"#utility.yul\":13054:13060   */\n      dup6\n        /* \"#utility.yul\":13047:13052   */\n      dup3\n        /* \"#utility.yul\":12994:13061   */\n      tag_106\n      jump\t// in\n    tag_243:\n        /* \"#utility.yul\":12988:12992   */\n      dup7\n        /* \"#utility.yul\":12981:13062   */\n      sstore\n        /* \"#utility.yul\":12843:13072   */\n      pop\n        /* \"#utility.yul\":12164:13072   */\n      jump(tag_240)\n        /* \"#utility.yul\":12194:12826   */\n    tag_241:\n        /* \"#utility.yul\":12246:12250   */\n      0x1f\n        /* \"#utility.yul\":12242:12251   */\n      not\n        /* \"#utility.yul\":12234:12240   */\n      dup5\n        /* \"#utility.yul\":12230:12252   */\n      and\n        /* \"#utility.yul\":12280:12317   */\n      tag_244\n        /* \"#utility.yul\":12312:12316   */\n      dup7\n        /* \"#utility.yul\":12280:12317   */\n      tag_92\n      jump\t// in\n    tag_244:\n        /* \"#utility.yul\":12339:12340   */\n      0x00\n        /* \"#utility.yul\":12353:12568   */\n    tag_245:\n        /* \"#utility.yul\":12367:12374   */\n      dup3\n        /* \"#utility.yul\":12364:12365   */\n      dup2\n        /* \"#utility.yul\":12361:12375   */\n      lt\n        /* \"#utility.yul\":12353:12568   */\n      iszero\n      tag_247\n      jumpi\n        /* \"#utility.yul\":12453:12462   */\n      dup5\n        /* \"#utility.yul\":12448:12451   */\n      dup10\n        /* \"#utility.yul\":12444:12463   */\n      add\n        /* \"#utility.yul\":12431:12464   */\n      calldataload\n        /* \"#utility.yul\":12423:12429   */\n      dup3\n        /* \"#utility.yul\":12416:12465   */\n      sstore\n        /* \"#utility.yul\":12504:12505   */\n      0x01\n        /* \"#utility.yul\":12496:12502   */\n      dup3\n        /* \"#utility.yul\":12492:12506   */\n      add\n        /* \"#utility.yul\":12482:12506   */\n      swap2\n      pop\n        /* \"#utility.yul\":12551:12553   */\n      0x20\n        /* \"#utility.yul\":12540:12549   */\n      dup6\n        /* \"#utility.yul\":12536:12554   */\n      add\n        /* \"#utility.yul\":12523:12554   */\n      swap5\n      pop\n        /* \"#utility.yul\":12390:12394   */\n      0x20\n        /* \"#utility.yul\":12387:12388   */\n      dup2\n        /* \"#utility.yul\":12383:12395   */\n      add\n        /* \"#utility.yul\":12378:12395   */\n      swap1\n      pop\n        /* \"#utility.yul\":12353:12568   */\n      jump(tag_245)\n    tag_247:\n        /* \"#utility.yul\":12596:12602   */\n      dup7\n        /* \"#utility.yul\":12587:12594   */\n      dup4\n        /* \"#utility.yul\":12584:12603   */\n      lt\n        /* \"#utility.yul\":12581:12767   */\n      iszero\n      tag_248\n      jumpi\n        /* \"#utility.yul\":12661:12670   */\n      dup5\n        /* \"#utility.yul\":12656:12659   */\n      dup10\n        /* \"#utility.yul\":12652:12671   */\n      add\n        /* \"#utility.yul\":12639:12672   */\n      calldataload\n        /* \"#utility.yul\":12704:12752   */\n      tag_249\n        /* \"#utility.yul\":12746:12750   */\n      0x1f\n        /* \"#utility.yul\":12738:12744   */\n      dup10\n        /* \"#utility.yul\":12734:12751   */\n      and\n        /* \"#utility.yul\":12723:12732   */\n      dup3\n        /* \"#utility.yul\":12704:12752   */\n      tag_105\n      jump\t// in\n    tag_249:\n        /* \"#utility.yul\":12696:12702   */\n      dup4\n        /* \"#utility.yul\":12689:12753   */\n      sstore\n        /* \"#utility.yul\":12604:12767   */\n      pop\n        /* \"#utility.yul\":12581:12767   */\n    tag_248:\n        /* \"#utility.yul\":12813:12814   */\n      0x01\n        /* \"#utility.yul\":12809:12810   */\n      0x02\n        /* \"#utility.yul\":12801:12807   */\n      dup9\n        /* \"#utility.yul\":12797:12811   */\n      mul\n        /* \"#utility.yul\":12793:12815   */\n      add\n        /* \"#utility.yul\":12787:12791   */\n      dup9\n        /* \"#utility.yul\":12780:12816   */\n      sstore\n        /* \"#utility.yul\":12201:12826   */\n      pop\n      pop\n      pop\n        /* \"#utility.yul\":12164:13072   */\n    tag_240:\n      pop\n        /* \"#utility.yul\":11774:13078   */\n      pop\n      pop\n      pop\n        /* \"#utility.yul\":11675:13078   */\n      pop\n      pop\n      pop\n      jump\t// out\n\n    auxdata: 0xa26469706673582212202abe6a3b4a6587092167bedf49f3978c0dd946dc44a413264804e685e5d9a5aa64736f6c634300081a0033\n}\n",
				"bytecode": {
					"linkReferences": {},
					"object": "6080604052348015600e575f80fd5b50610c918061001c5f395ff3fe608060405234801561000f575f80fd5b5060043610610055575f3560e01c8063455f5024146100595780639507d39a14610075578063b6a46b3b146100a5578063bc8bc2b4146100c1578063cd111614146100f2575b5f80fd5b610073600480360381019061006e91906105c4565b61010e565b005b61008f600480360381019061008a91906105c4565b610160565b60405161009c91906106b3565b60405180910390f35b6100bf60048036038101906100ba9190610734565b610242565b005b6100db60048036038101906100d691906105c4565b610473565b6040516100e99291906107d6565b60405180910390f35b61010c60048036038101906101079190610804565b610533565b005b5f80828154811061012257610121610861565b5b905f5260205f2090600202019050806001015f9054906101000a900460ff1615816001015f6101000a81548160ff0219169083151502179055505050565b61016861056e565b5f828154811061017b5761017a610861565b5b905f5260205f2090600202016040518060400160405290815f820180546101a1906108bb565b80601f01602080910402602001604051908101604052809291908181526020018280546101cd906108bb565b80156102185780601f106101ef57610100808354040283529160200191610218565b820191905f5260205f20905b8154815290600101906020018083116101fb57829003601f168201915b50505050508152602001600182015f9054906101000a900460ff1615151515815250509050919050565b5f604051806040016040528084848080601f0160208091040260200160405190810160405280939291908181526020018383808284375f81840152601f19601f8201169050808301925050505050505081526020015f1515815250908060018154018082558091505060019003905f5260205f2090600202015f909190919091505f820151815f0190816102d69190610ab5565b506020820151816001015f6101000a81548160ff02191690831515021790555050505f604051806040016040528084848080601f0160208091040260200160405190810160405280939291908181526020018383808284375f81840152601f19601f8201169050808301925050505050505081526020015f1515815250908060018154018082558091505060019003905f5260205f2090600202015f909190919091505f820151815f01908161038c9190610ab5565b506020820151816001015f6101000a81548160ff02191690831515021790555050506103b661056e565b82828080601f0160208091040260200160405190810160405280939291908181526020018383808284375f81840152601f19601f82011690508083019250505050505050815f01819052505f8160200190151590811515815250505f81908060018154018082558091505060019003905f5260205f2090600202015f909190919091505f820151815f01908161044c9190610ab5565b506020820151816001015f6101000a81548160ff0219169083151502179055505050505050565b5f8181548110610481575f80fd5b905f5260205f2090600202015f91509050805f0180546104a0906108bb565b80601f01602080910402602001604051908101604052809291908181526020018280546104cc906108bb565b80156105175780601f106104ee57610100808354040283529160200191610517565b820191905f5260205f20905b8154815290600101906020018083116104fa57829003601f168201915b505050505090806001015f9054906101000a900460ff16905082565b5f80848154811061054757610546610861565b5b905f5260205f20906002020190508282825f019182610567929190610b8e565b5050505050565b6040518060400160405280606081526020015f151581525090565b5f80fd5b5f80fd5b5f819050919050565b6105a381610591565b81146105ad575f80fd5b50565b5f813590506105be8161059a565b92915050565b5f602082840312156105d9576105d8610589565b5b5f6105e6848285016105b0565b91505092915050565b5f81519050919050565b5f82825260208201905092915050565b8281835e5f83830152505050565b5f601f19601f8301169050919050565b5f610631826105ef565b61063b81856105f9565b935061064b818560208601610609565b61065481610617565b840191505092915050565b5f8115159050919050565b6106738161065f565b82525050565b5f604083015f8301518482035f8601526106938282610627565b91505060208301516106a8602086018261066a565b508091505092915050565b5f6020820190508181035f8301526106cb8184610679565b905092915050565b5f80fd5b5f80fd5b5f80fd5b5f8083601f8401126106f4576106f36106d3565b5b8235905067ffffffffffffffff811115610711576107106106d7565b5b60208301915083600182028301111561072d5761072c6106db565b5b9250929050565b5f806020838503121561074a57610749610589565b5b5f83013567ffffffffffffffff8111156107675761076661058d565b5b610773858286016106df565b92509250509250929050565b5f82825260208201905092915050565b5f610799826105ef565b6107a3818561077f565b93506107b3818560208601610609565b6107bc81610617565b840191505092915050565b6107d08161065f565b82525050565b5f6040820190508181035f8301526107ee818561078f565b90506107fd60208301846107c7565b9392505050565b5f805f6040848603121561081b5761081a610589565b5b5f610828868287016105b0565b935050602084013567ffffffffffffffff8111156108495761084861058d565b5b610855868287016106df565b92509250509250925092565b7f4e487b71000000000000000000000000000000000000000000000000000000005f52603260045260245ffd5b7f4e487b71000000000000000000000000000000000000000000000000000000005f52602260045260245ffd5b5f60028204905060018216806108d257607f821691505b6020821081036108e5576108e461088e565b5b50919050565b7f4e487b71000000000000000000000000000000000000000000000000000000005f52604160045260245ffd5b5f819050815f5260205f209050919050565b5f6020601f8301049050919050565b5f82821b905092915050565b5f600883026109747fffffffffffffffffffffffffffffffffffffffffffffffffffffffffffffffff82610939565b61097e8683610939565b95508019841693508086168417925050509392505050565b5f819050919050565b5f6109b96109b46109af84610591565b610996565b610591565b9050919050565b5f819050919050565b6109d28361099f565b6109e66109de826109c0565b848454610945565b825550505050565b5f90565b6109fa6109ee565b610a058184846109c9565b505050565b5b81811015610a2857610a1d5f826109f2565b600181019050610a0b565b5050565b601f821115610a6d57610a3e81610918565b610a478461092a565b81016020851015610a56578190505b610a6a610a628561092a565b830182610a0a565b50505b505050565b5f82821c905092915050565b5f610a8d5f1984600802610a72565b1980831691505092915050565b5f610aa58383610a7e565b9150826002028217905092915050565b610abe826105ef565b67ffffffffffffffff811115610ad757610ad66108eb565b5b610ae182546108bb565b610aec828285610a2c565b5f60209050601f831160018114610b1d575f8415610b0b578287015190505b610b158582610a9a565b865550610b7c565b601f198416610b2b86610918565b5f5b82811015610b5257848901518255600182019150602085019450602081019050610b2d565b86831015610b6f5784890151610b6b601f891682610a7e565b8355505b6001600288020188555050505b505050505050565b5f82905092915050565b610b988383610b84565b67ffffffffffffffff811115610bb157610bb06108eb565b5b610bbb82546108bb565b610bc6828285610a2c565b5f601f831160018114610bf3575f8415610be1578287013590505b610beb8582610a9a565b865550610c52565b601f198416610c0186610918565b5f5b82811015610c2857848901358255600182019150602085019450602081019050610c03565b86831015610c455784890135610c41601f891682610a7e565b8355505b6001600288020188555050505b5050505050505056fea26469706673582212202abe6a3b4a6587092167bedf49f3978c0dd946dc44a413264804e685e5d9a5aa64736f6c634300081a0033",
					"opcodes": "PUSH1 0x80 PUSH1 0x40 MSTORE CALLVALUE DUP1 ISZERO PUSH1 0xE JUMPI PUSH0 DUP1 REVERT JUMPDEST POP PUSH2 0xC91 DUP1 PUSH2 0x1C PUSH0 CODECOPY PUSH0 RETURN INVALID PUSH1 0x80 PUSH1 0x40 MSTORE CALLVALUE DUP1 ISZERO PUSH2 0xF JUMPI PUSH0 DUP1 REVERT JUMPDEST POP PUSH1 0x4 CALLDATASIZE LT PUSH2 0x55 JUMPI PUSH0 CALLDATALOAD PUSH1 0xE0 SHR DUP1 PUSH4 0x455F5024 EQ PUSH2 0x59 JUMPI DUP1 PUSH4 0x9507D39A EQ PUSH2 0x75 JUMPI DUP1 PUSH4 0xB6A46B3B EQ PUSH2 0xA5 JUMPI DUP1 PUSH4 0xBC8BC2B4 EQ PUSH2 0xC1 JUMPI DUP1 PUSH4 0xCD111614 EQ PUSH2 0xF2 JUMPI JUMPDEST PUSH0 DUP1 REVERT JUMPDEST PUSH2 0x73 PUSH1 0x4 DUP1 CALLDATASIZE SUB DUP2 ADD SWAP1 PUSH2 0x6E SWAP2 SWAP1 PUSH2 0x5C4 JUMP JUMPDEST PUSH2 0x10E JUMP JUMPDEST STOP JUMPDEST PUSH2 0x8F PUSH1 0x4 DUP1 CALLDATASIZE SUB DUP2 ADD SWAP1 PUSH2 0x8A SWAP2 SWAP1 PUSH2 0x5C4 JUMP JUMPDEST PUSH2 0x160 JUMP JUMPDEST PUSH1 0x40 MLOAD PUSH2 0x9C SWAP2 SWAP1 PUSH2 0x6B3 JUMP JUMPDEST PUSH1 0x40 MLOAD DUP1 SWAP2 SUB SWAP1 RETURN JUMPDEST PUSH2 0xBF PUSH1 0x4 DUP1 CALLDATASIZE SUB DUP2 ADD SWAP1 PUSH2 0xBA SWAP2 SWAP1 PUSH2 0x734 JUMP JUMPDEST PUSH2 0x242 JUMP JUMPDEST STOP JUMPDEST PUSH2 0xDB PUSH1 0x4 DUP1 CALLDATASIZE SUB DUP2 ADD SWAP1 PUSH2 0xD6 SWAP2 SWAP1 PUSH2 0x5C4 JUMP JUMPDEST PUSH2 0x473 JUMP JUMPDEST PUSH1 0x40 MLOAD PUSH2 0xE9 SWAP3 SWAP2 SWAP1 PUSH2 0x7D6 JUMP JUMPDEST PUSH1 0x40 MLOAD DUP1 SWAP2 SUB SWAP1 RETURN JUMPDEST PUSH2 0x10C PUSH1 0x4 DUP1 CALLDATASIZE SUB DUP2 ADD SWAP1 PUSH2 0x107 SWAP2 SWAP1 PUSH2 0x804 JUMP JUMPDEST PUSH2 0x533 JUMP JUMPDEST STOP JUMPDEST PUSH0 DUP1 DUP3 DUP2 SLOAD DUP2 LT PUSH2 0x122 JUMPI PUSH2 0x121 PUSH2 0x861 JUMP JUMPDEST JUMPDEST SWAP1 PUSH0 MSTORE PUSH1 0x20 PUSH0 KECCAK256 SWAP1 PUSH1 0x2 MUL ADD SWAP1 POP DUP1 PUSH1 0x1 ADD PUSH0 SWAP1 SLOAD SWAP1 PUSH2 0x100 EXP SWAP1 DIV PUSH1 0xFF AND ISZERO DUP2 PUSH1 0x1 ADD PUSH0 PUSH2 0x100 EXP DUP2 SLOAD DUP2 PUSH1 0xFF MUL NOT AND SWAP1 DUP4 ISZERO ISZERO MUL OR SWAP1 SSTORE POP POP POP JUMP JUMPDEST PUSH2 0x168 PUSH2 0x56E JUMP JUMPDEST PUSH0 DUP3 DUP2 SLOAD DUP2 LT PUSH2 0x17B JUMPI PUSH2 0x17A PUSH2 0x861 JUMP JUMPDEST JUMPDEST SWAP1 PUSH0 MSTORE PUSH1 0x20 PUSH0 KECCAK256 SWAP1 PUSH1 0x2 MUL ADD PUSH1 0x40 MLOAD DUP1 PUSH1 0x40 ADD PUSH1 0x40 MSTORE SWAP1 DUP2 PUSH0 DUP3 ADD DUP1 SLOAD PUSH2 0x1A1 SWAP1 PUSH2 0x8BB JUMP JUMPDEST DUP1 PUSH1 0x1F ADD PUSH1 0x20 DUP1 SWAP2 DIV MUL PUSH1 0x20 ADD PUSH1 0x40 MLOAD SWAP1 DUP2 ADD PUSH1 0x40 MSTORE DUP1 SWAP3 SWAP2 SWAP1 DUP2 DUP2 MSTORE PUSH1 0x20 ADD DUP3 DUP1 SLOAD PUSH2 0x1CD SWAP1 PUSH2 0x8BB JUMP JUMPDEST DUP1 ISZERO PUSH2 0x218 JUMPI DUP1 PUSH1 0x1F LT PUSH2 0x1EF JUMPI PUSH2 0x100 DUP1 DUP4 SLOAD DIV MUL DUP4 MSTORE SWAP2 PUSH1 0x20 ADD SWAP2 PUSH2 0x218 JUMP JUMPDEST DUP3 ADD SWAP2 SWAP1 PUSH0 MSTORE PUSH1 0x20 PUSH0 KECCAK256 SWAP1 JUMPDEST DUP2 SLOAD DUP2 MSTORE SWAP1 PUSH1 0x1 ADD SWAP1 PUSH1 0x20 ADD DUP1 DUP4 GT PUSH2 0x1FB JUMPI DUP3 SWAP1 SUB PUSH1 0x1F AND DUP3 ADD SWAP2 JUMPDEST POP POP POP POP POP DUP2 MSTORE PUSH1 0x20 ADD PUSH1 0x1 DUP3 ADD PUSH0 SWAP1 SLOAD SWAP1 PUSH2 0x100 EXP SWAP1 DIV PUSH1 0xFF AND ISZERO ISZERO ISZERO ISZERO DUP2 MSTORE POP POP SWAP1 POP SWAP2 SWAP1 POP JUMP JUMPDEST PUSH0 PUSH1 0x40 MLOAD DUP1 PUSH1 0x40 ADD PUSH1 0x40 MSTORE DUP1 DUP5 DUP5 DUP1 DUP1 PUSH1 0x1F ADD PUSH1 0x20 DUP1 SWAP2 DIV MUL PUSH1 0x20 ADD PUSH1 0x40 MLOAD SWAP1 DUP2 ADD PUSH1 0x40 MSTORE DUP1 SWAP4 SWAP3 SWAP2 SWAP1 DUP2 DUP2 MSTORE PUSH1 0x20 ADD DUP4 DUP4 DUP1 DUP3 DUP5 CALLDATACOPY PUSH0 DUP2 DUP5 ADD MSTORE PUSH1 0x1F NOT PUSH1 0x1F DUP3 ADD AND SWAP1 POP DUP1 DUP4 ADD SWAP3 POP POP POP POP POP POP POP DUP2 MSTORE PUSH1 0x20 ADD PUSH0 ISZERO ISZERO DUP2 MSTORE POP SWAP1 DUP1 PUSH1 0x1 DUP2 SLOAD ADD DUP1 DUP3 SSTORE DUP1 SWAP2 POP POP PUSH1 0x1 SWAP1 SUB SWAP1 PUSH0 MSTORE PUSH1 0x20 PUSH0 KECCAK256 SWAP1 PUSH1 0x2 MUL ADD PUSH0 SWAP1 SWAP2 SWAP1 SWAP2 SWAP1 SWAP2 POP PUSH0 DUP3 ADD MLOAD DUP2 PUSH0 ADD SWAP1 DUP2 PUSH2 0x2D6 SWAP2 SWAP1 PUSH2 0xAB5 JUMP JUMPDEST POP PUSH1 0x20 DUP3 ADD MLOAD DUP2 PUSH1 0x1 ADD PUSH0 PUSH2 0x100 EXP DUP2 SLOAD DUP2 PUSH1 0xFF MUL NOT AND SWAP1 DUP4 ISZERO ISZERO MUL OR SWAP1 SSTORE POP POP POP PUSH0 PUSH1 0x40 MLOAD DUP1 PUSH1 0x40 ADD PUSH1 0x40 MSTORE DUP1 DUP5 DUP5 DUP1 DUP1 PUSH1 0x1F ADD PUSH1 0x20 DUP1 SWAP2 DIV MUL PUSH1 0x20 ADD PUSH1 0x40 MLOAD SWAP1 DUP2 ADD PUSH1 0x40 MSTORE DUP1 SWAP4 SWAP3 SWAP2 SWAP1 DUP2 DUP2 MSTORE PUSH1 0x20 ADD DUP4 DUP4 DUP1 DUP3 DUP5 CALLDATACOPY PUSH0 DUP2 DUP5 ADD MSTORE PUSH1 0x1F NOT PUSH1 0x1F DUP3 ADD AND SWAP1 POP DUP1 DUP4 ADD SWAP3 POP POP POP POP POP POP POP DUP2 MSTORE PUSH1 0x20 ADD PUSH0 ISZERO ISZERO DUP2 MSTORE POP SWAP1 DUP1 PUSH1 0x1 DUP2 SLOAD ADD DUP1 DUP3 SSTORE DUP1 SWAP2 POP POP PUSH1 0x1 SWAP1 SUB SWAP1 PUSH0 MSTORE PUSH1 0x20 PUSH0 KECCAK256 SWAP1 PUSH1 0x2 MUL ADD PUSH0 SWAP1 SWAP2 SWAP1 SWAP2 SWAP1 SWAP2 POP PUSH0 DUP3 ADD MLOAD DUP2 PUSH0 ADD SWAP1 DUP2 PUSH2 0x38C SWAP2 SWAP1 PUSH2 0xAB5 JUMP JUMPDEST POP PUSH1 0x20 DUP3 ADD MLOAD DUP2 PUSH1 0x1 ADD PUSH0 PUSH2 0x100 EXP DUP2 SLOAD DUP2 PUSH1 0xFF MUL NOT AND SWAP1 DUP4 ISZERO ISZERO MUL OR SWAP1 SSTORE POP POP POP PUSH2 0x3B6 PUSH2 0x56E JUMP JUMPDEST DUP3 DUP3 DUP1 DUP1 PUSH1 0x1F ADD PUSH1 0x20 DUP1 SWAP2 DIV MUL PUSH1 0x20 ADD PUSH1 0x40 MLOAD SWAP1 DUP2 ADD PUSH1 0x40 MSTORE DUP1 SWAP4 SWAP3 SWAP2 SWAP1 DUP2 DUP2 MSTORE PUSH1 0x20 ADD DUP4 DUP4 DUP1 DUP3 DUP5 CALLDATACOPY PUSH0 DUP2 DUP5 ADD MSTORE PUSH1 0x1F NOT PUSH1 0x1F DUP3 ADD AND SWAP1 POP DUP1 DUP4 ADD SWAP3 POP POP POP POP POP POP POP DUP2 PUSH0 ADD DUP2 SWAP1 MSTORE POP PUSH0 DUP2 PUSH1 0x20 ADD SWAP1 ISZERO ISZERO SWAP1 DUP2 ISZERO ISZERO DUP2 MSTORE POP POP PUSH0 DUP2 SWAP1 DUP1 PUSH1 0x1 DUP2 SLOAD ADD DUP1 DUP3 SSTORE DUP1 SWAP2 POP POP PUSH1 0x1 SWAP1 SUB SWAP1 PUSH0 MSTORE PUSH1 0x20 PUSH0 KECCAK256 SWAP1 PUSH1 0x2 MUL ADD PUSH0 SWAP1 SWAP2 SWAP1 SWAP2 SWAP1 SWAP2 POP PUSH0 DUP3 ADD MLOAD DUP2 PUSH0 ADD SWAP1 DUP2 PUSH2 0x44C SWAP2 SWAP1 PUSH2 0xAB5 JUMP JUMPDEST POP PUSH1 0x20 DUP3 ADD MLOAD DUP2 PUSH1 0x1 ADD PUSH0 PUSH2 0x100 EXP DUP2 SLOAD DUP2 PUSH1 0xFF MUL NOT AND SWAP1 DUP4 ISZERO ISZERO MUL OR SWAP1 SSTORE POP POP POP POP POP POP JUMP JUMPDEST PUSH0 DUP2 DUP2 SLOAD DUP2 LT PUSH2 0x481 JUMPI PUSH0 DUP1 REVERT JUMPDEST SWAP1 PUSH0 MSTORE PUSH1 0x20 PUSH0 KECCAK256 SWAP1 PUSH1 0x2 MUL ADD PUSH0 SWAP2 POP SWAP1 POP DUP1 PUSH0 ADD DUP1 SLOAD PUSH2 0x4A0 SWAP1 PUSH2 0x8BB JUMP JUMPDEST DUP1 PUSH1 0x1F ADD PUSH1 0x20 DUP1 SWAP2 DIV MUL PUSH1 0x20 ADD PUSH1 0x40 MLOAD SWAP1 DUP2 ADD PUSH1 0x40 MSTORE DUP1 SWAP3 SWAP2 SWAP1 DUP2 DUP2 MSTORE PUSH1 0x20 ADD DUP3 DUP1 SLOAD PUSH2 0x4CC SWAP1 PUSH2 0x8BB JUMP JUMPDEST DUP1 ISZERO PUSH2 0x517 JUMPI DUP1 PUSH1 0x1F LT PUSH2 0x4EE JUMPI PUSH2 0x100 DUP1 DUP4 SLOAD DIV MUL DUP4 MSTORE SWAP2 PUSH1 0x20 ADD SWAP2 PUSH2 0x517 JUMP JUMPDEST DUP3 ADD SWAP2 SWAP1 PUSH0 MSTORE PUSH1 0x20 PUSH0 KECCAK256 SWAP1 JUMPDEST DUP2 SLOAD DUP2 MSTORE SWAP1 PUSH1 0x1 ADD SWAP1 PUSH1 0x20 ADD DUP1 DUP4 GT PUSH2 0x4FA JUMPI DUP3 SWAP1 SUB PUSH1 0x1F AND DUP3 ADD SWAP2 JUMPDEST POP POP POP POP POP SWAP1 DUP1 PUSH1 0x1 ADD PUSH0 SWAP1 SLOAD SWAP1 PUSH2 0x100 EXP SWAP1 DIV PUSH1 0xFF AND SWAP1 POP DUP3 JUMP JUMPDEST PUSH0 DUP1 DUP5 DUP2 SLOAD DUP2 LT PUSH2 0x547 JUMPI PUSH2 0x546 PUSH2 0x861 JUMP JUMPDEST JUMPDEST SWAP1 PUSH0 MSTORE PUSH1 0x20 PUSH0 KECCAK256 SWAP1 PUSH1 0x2 MUL ADD SWAP1 POP DUP3 DUP3 DUP3 PUSH0 ADD SWAP2 DUP3 PUSH2 0x567 SWAP3 SWAP2 SWAP1 PUSH2 0xB8E JUMP JUMPDEST POP POP POP POP POP JUMP JUMPDEST PUSH1 0x40 MLOAD DUP1 PUSH1 0x40 ADD PUSH1 0x40 MSTORE DUP1 PUSH1 0x60 DUP2 MSTORE PUSH1 0x20 ADD PUSH0 ISZERO ISZERO DUP2 MSTORE POP SWAP1 JUMP JUMPDEST PUSH0 DUP1 REVERT JUMPDEST PUSH0 DUP1 REVERT JUMPDEST PUSH0 DUP2 SWAP1 POP SWAP2 SWAP1 POP JUMP JUMPDEST PUSH2 0x5A3 DUP2 PUSH2 0x591 JUMP JUMPDEST DUP2 EQ PUSH2 0x5AD JUMPI PUSH0 DUP1 REVERT JUMPDEST POP JUMP JUMPDEST PUSH0 DUP2 CALLDATALOAD SWAP1 POP PUSH2 0x5BE DUP2 PUSH2 0x59A JUMP JUMPDEST SWAP3 SWAP2 POP POP JUMP JUMPDEST PUSH0 PUSH1 0x20 DUP3 DUP5 SUB SLT ISZERO PUSH2 0x5D9 JUMPI PUSH2 0x5D8 PUSH2 0x589 JUMP JUMPDEST JUMPDEST PUSH0 PUSH2 0x5E6 DUP5 DUP3 DUP6 ADD PUSH2 0x5B0 JUMP JUMPDEST SWAP2 POP POP SWAP3 SWAP2 POP POP JUMP JUMPDEST PUSH0 DUP2 MLOAD SWAP1 POP SWAP2 SWAP1 POP JUMP JUMPDEST PUSH0 DUP3 DUP3 MSTORE PUSH1 0x20 DUP3 ADD SWAP1 POP SWAP3 SWAP2 POP POP JUMP JUMPDEST DUP3 DUP2 DUP4 MCOPY PUSH0 DUP4 DUP4 ADD MSTORE POP POP POP JUMP JUMPDEST PUSH0 PUSH1 0x1F NOT PUSH1 0x1F DUP4 ADD AND SWAP1 POP SWAP2 SWAP1 POP JUMP JUMPDEST PUSH0 PUSH2 0x631 DUP3 PUSH2 0x5EF JUMP JUMPDEST PUSH2 0x63B DUP2 DUP6 PUSH2 0x5F9 JUMP JUMPDEST SWAP4 POP PUSH2 0x64B DUP2 DUP6 PUSH1 0x20 DUP7 ADD PUSH2 0x609 JUMP JUMPDEST PUSH2 0x654 DUP2 PUSH2 0x617 JUMP JUMPDEST DUP5 ADD SWAP2 POP POP SWAP3 SWAP2 POP POP JUMP JUMPDEST PUSH0 DUP2 ISZERO ISZERO SWAP1 POP SWAP2 SWAP1 POP JUMP JUMPDEST PUSH2 0x673 DUP2 PUSH2 0x65F JUMP JUMPDEST DUP3 MSTORE POP POP JUMP JUMPDEST PUSH0 PUSH1 0x40 DUP4 ADD PUSH0 DUP4 ADD MLOAD DUP5 DUP3 SUB PUSH0 DUP7 ADD MSTORE PUSH2 0x693 DUP3 DUP3 PUSH2 0x627 JUMP JUMPDEST SWAP2 POP POP PUSH1 0x20 DUP4 ADD MLOAD PUSH2 0x6A8 PUSH1 0x20 DUP7 ADD DUP3 PUSH2 0x66A JUMP JUMPDEST POP DUP1 SWAP2 POP POP SWAP3 SWAP2 POP POP JUMP JUMPDEST PUSH0 PUSH1 0x20 DUP3 ADD SWAP1 POP DUP2 DUP2 SUB PUSH0 DUP4 ADD MSTORE PUSH2 0x6CB DUP2 DUP5 PUSH2 0x679 JUMP JUMPDEST SWAP1 POP SWAP3 SWAP2 POP POP JUMP JUMPDEST PUSH0 DUP1 REVERT JUMPDEST PUSH0 DUP1 REVERT JUMPDEST PUSH0 DUP1 REVERT JUMPDEST PUSH0 DUP1 DUP4 PUSH1 0x1F DUP5 ADD SLT PUSH2 0x6F4 JUMPI PUSH2 0x6F3 PUSH2 0x6D3 JUMP JUMPDEST JUMPDEST DUP3 CALLDATALOAD SWAP1 POP PUSH8 0xFFFFFFFFFFFFFFFF DUP2 GT ISZERO PUSH2 0x711 JUMPI PUSH2 0x710 PUSH2 0x6D7 JUMP JUMPDEST JUMPDEST PUSH1 0x20 DUP4 ADD SWAP2 POP DUP4 PUSH1 0x1 DUP3 MUL DUP4 ADD GT ISZERO PUSH2 0x72D JUMPI PUSH2 0x72C PUSH2 0x6DB JUMP JUMPDEST JUMPDEST SWAP3 POP SWAP3 SWAP1 POP JUMP JUMPDEST PUSH0 DUP1 PUSH1 0x20 DUP4 DUP6 SUB SLT ISZERO PUSH2 0x74A JUMPI PUSH2 0x749 PUSH2 0x589 JUMP JUMPDEST JUMPDEST PUSH0 DUP4 ADD CALLDATALOAD PUSH8 0xFFFFFFFFFFFFFFFF DUP2 GT ISZERO PUSH2 0x767 JUMPI PUSH2 0x766 PUSH2 0x58D JUMP JUMPDEST JUMPDEST PUSH2 0x773 DUP6 DUP3 DUP7 ADD PUSH2 0x6DF JUMP JUMPDEST SWAP3 POP SWAP3 POP POP SWAP3 POP SWAP3 SWAP1 POP JUMP JUMPDEST PUSH0 DUP3 DUP3 MSTORE PUSH1 0x20 DUP3 ADD SWAP1 POP SWAP3 SWAP2 POP POP JUMP JUMPDEST PUSH0 PUSH2 0x799 DUP3 PUSH2 0x5EF JUMP JUMPDEST PUSH2 0x7A3 DUP2 DUP6 PUSH2 0x77F JUMP JUMPDEST SWAP4 POP PUSH2 0x7B3 DUP2 DUP6 PUSH1 0x20 DUP7 ADD PUSH2 0x609 JUMP JUMPDEST PUSH2 0x7BC DUP2 PUSH2 0x617 JUMP JUMPDEST DUP5 ADD SWAP2 POP POP SWAP3 SWAP2 POP POP JUMP JUMPDEST PUSH2 0x7D0 DUP2 PUSH2 0x65F JUMP JUMPDEST DUP3 MSTORE POP POP JUMP JUMPDEST PUSH0 PUSH1 0x40 DUP3 ADD SWAP1 POP DUP2 DUP2 SUB PUSH0 DUP4 ADD MSTORE PUSH2 0x7EE DUP2 DUP6 PUSH2 0x78F JUMP JUMPDEST SWAP1 POP PUSH2 0x7FD PUSH1 0x20 DUP4 ADD DUP5 PUSH2 0x7C7 JUMP JUMPDEST SWAP4 SWAP3 POP POP POP JUMP JUMPDEST PUSH0 DUP1 PUSH0 PUSH1 0x40 DUP5 DUP7 SUB SLT ISZERO PUSH2 0x81B JUMPI PUSH2 0x81A PUSH2 0x589 JUMP JUMPDEST JUMPDEST PUSH0 PUSH2 0x828 DUP7 DUP3 DUP8 ADD PUSH2 0x5B0 JUMP JUMPDEST SWAP4 POP POP PUSH1 0x20 DUP5 ADD CALLDATALOAD PUSH8 0xFFFFFFFFFFFFFFFF DUP2 GT ISZERO PUSH2 0x849 JUMPI PUSH2 0x848 PUSH2 0x58D JUMP JUMPDEST JUMPDEST PUSH2 0x855 DUP7 DUP3 DUP8 ADD PUSH2 0x6DF JUMP JUMPDEST SWAP3 POP SWAP3 POP POP SWAP3 POP SWAP3 POP SWAP3 JUMP JUMPDEST PUSH32 0x4E487B7100000000000000000000000000000000000000000000000000000000 PUSH0 MSTORE PUSH1 0x32 PUSH1 0x4 MSTORE PUSH1 0x24 PUSH0 REVERT JUMPDEST PUSH32 0x4E487B7100000000000000000000000000000000000000000000000000000000 PUSH0 MSTORE PUSH1 0x22 PUSH1 0x4 MSTORE PUSH1 0x24 PUSH0 REVERT JUMPDEST PUSH0 PUSH1 0x2 DUP3 DIV SWAP1 POP PUSH1 0x1 DUP3 AND DUP1 PUSH2 0x8D2 JUMPI PUSH1 0x7F DUP3 AND SWAP2 POP JUMPDEST PUSH1 0x20 DUP3 LT DUP2 SUB PUSH2 0x8E5 JUMPI PUSH2 0x8E4 PUSH2 0x88E JUMP JUMPDEST JUMPDEST POP SWAP2 SWAP1 POP JUMP JUMPDEST PUSH32 0x4E487B7100000000000000000000000000000000000000000000000000000000 PUSH0 MSTORE PUSH1 0x41 PUSH1 0x4 MSTORE PUSH1 0x24 PUSH0 REVERT JUMPDEST PUSH0 DUP2 SWAP1 POP DUP2 PUSH0 MSTORE PUSH1 0x20 PUSH0 KECCAK256 SWAP1 POP SWAP2 SWAP1 POP JUMP JUMPDEST PUSH0 PUSH1 0x20 PUSH1 0x1F DUP4 ADD DIV SWAP1 POP SWAP2 SWAP1 POP JUMP JUMPDEST PUSH0 DUP3 DUP3 SHL SWAP1 POP SWAP3 SWAP2 POP POP JUMP JUMPDEST PUSH0 PUSH1 0x8 DUP4 MUL PUSH2 0x974 PUSH32 0xFFFFFFFFFFFFFFFFFFFFFFFFFFFFFFFFFFFFFFFFFFFFFFFFFFFFFFFFFFFFFFFF DUP3 PUSH2 0x939 JUMP JUMPDEST PUSH2 0x97E DUP7 DUP4 PUSH2 0x939 JUMP JUMPDEST SWAP6 POP DUP1 NOT DUP5 AND SWAP4 POP DUP1 DUP7 AND DUP5 OR SWAP3 POP POP POP SWAP4 SWAP3 POP POP POP JUMP JUMPDEST PUSH0 DUP2 SWAP1 POP SWAP2 SWAP1 POP JUMP JUMPDEST PUSH0 PUSH2 0x9B9 PUSH2 0x9B4 PUSH2 0x9AF DUP5 PUSH2 0x591 JUMP JUMPDEST PUSH2 0x996 JUMP JUMPDEST PUSH2 0x591 JUMP JUMPDEST SWAP1 POP SWAP2 SWAP1 POP JUMP JUMPDEST PUSH0 DUP2 SWAP1 POP SWAP2 SWAP1 POP JUMP JUMPDEST PUSH2 0x9D2 DUP4 PUSH2 0x99F JUMP JUMPDEST PUSH2 0x9E6 PUSH2 0x9DE DUP3 PUSH2 0x9C0 JUMP JUMPDEST DUP5 DUP5 SLOAD PUSH2 0x945 JUMP JUMPDEST DUP3 SSTORE POP POP POP POP JUMP JUMPDEST PUSH0 SWAP1 JUMP JUMPDEST PUSH2 0x9FA PUSH2 0x9EE JUMP JUMPDEST PUSH2 0xA05 DUP2 DUP5 DUP5 PUSH2 0x9C9 JUMP JUMPDEST POP POP POP JUMP JUMPDEST JUMPDEST DUP2 DUP2 LT ISZERO PUSH2 0xA28 JUMPI PUSH2 0xA1D PUSH0 DUP3 PUSH2 0x9F2 JUMP JUMPDEST PUSH1 0x1 DUP2 ADD SWAP1 POP PUSH2 0xA0B JUMP JUMPDEST POP POP JUMP JUMPDEST PUSH1 0x1F DUP3 GT ISZERO PUSH2 0xA6D JUMPI PUSH2 0xA3E DUP2 PUSH2 0x918 JUMP JUMPDEST PUSH2 0xA47 DUP5 PUSH2 0x92A JUMP JUMPDEST DUP2 ADD PUSH1 0x20 DUP6 LT ISZERO PUSH2 0xA56 JUMPI DUP2 SWAP1 POP JUMPDEST PUSH2 0xA6A PUSH2 0xA62 DUP6 PUSH2 0x92A JUMP JUMPDEST DUP4 ADD DUP3 PUSH2 0xA0A JUMP JUMPDEST POP POP JUMPDEST POP POP POP JUMP JUMPDEST PUSH0 DUP3 DUP3 SHR SWAP1 POP SWAP3 SWAP2 POP POP JUMP JUMPDEST PUSH0 PUSH2 0xA8D PUSH0 NOT DUP5 PUSH1 0x8 MUL PUSH2 0xA72 JUMP JUMPDEST NOT DUP1 DUP4 AND SWAP2 POP POP SWAP3 SWAP2 POP POP JUMP JUMPDEST PUSH0 PUSH2 0xAA5 DUP4 DUP4 PUSH2 0xA7E JUMP JUMPDEST SWAP2 POP DUP3 PUSH1 0x2 MUL DUP3 OR SWAP1 POP SWAP3 SWAP2 POP POP JUMP JUMPDEST PUSH2 0xABE DUP3 PUSH2 0x5EF JUMP JUMPDEST PUSH8 0xFFFFFFFFFFFFFFFF DUP2 GT ISZERO PUSH2 0xAD7 JUMPI PUSH2 0xAD6 PUSH2 0x8EB JUMP JUMPDEST JUMPDEST PUSH2 0xAE1 DUP3 SLOAD PUSH2 0x8BB JUMP JUMPDEST PUSH2 0xAEC DUP3 DUP3 DUP6 PUSH2 0xA2C JUMP JUMPDEST PUSH0 PUSH1 0x20 SWAP1 POP PUSH1 0x1F DUP4 GT PUSH1 0x1 DUP2 EQ PUSH2 0xB1D JUMPI PUSH0 DUP5 ISZERO PUSH2 0xB0B JUMPI DUP3 DUP8 ADD MLOAD SWAP1 POP JUMPDEST PUSH2 0xB15 DUP6 DUP3 PUSH2 0xA9A JUMP JUMPDEST DUP7 SSTORE POP PUSH2 0xB7C JUMP JUMPDEST PUSH1 0x1F NOT DUP5 AND PUSH2 0xB2B DUP7 PUSH2 0x918 JUMP JUMPDEST PUSH0 JUMPDEST DUP3 DUP2 LT ISZERO PUSH2 0xB52 JUMPI DUP5 DUP10 ADD MLOAD DUP3 SSTORE PUSH1 0x1 DUP3 ADD SWAP2 POP PUSH1 0x20 DUP6 ADD SWAP5 POP PUSH1 0x20 DUP2 ADD SWAP1 POP PUSH2 0xB2D JUMP JUMPDEST DUP7 DUP4 LT ISZERO PUSH2 0xB6F JUMPI DUP5 DUP10 ADD MLOAD PUSH2 0xB6B PUSH1 0x1F DUP10 AND DUP3 PUSH2 0xA7E JUMP JUMPDEST DUP4 SSTORE POP JUMPDEST PUSH1 0x1 PUSH1 0x2 DUP9 MUL ADD DUP9 SSTORE POP POP POP JUMPDEST POP POP POP POP POP POP JUMP JUMPDEST PUSH0 DUP3 SWAP1 POP SWAP3 SWAP2 POP POP JUMP JUMPDEST PUSH2 0xB98 DUP4 DUP4 PUSH2 0xB84 JUMP JUMPDEST PUSH8 0xFFFFFFFFFFFFFFFF DUP2 GT ISZERO PUSH2 0xBB1 JUMPI PUSH2 0xBB0 PUSH2 0x8EB JUMP JUMPDEST JUMPDEST PUSH2 0xBBB DUP3 SLOAD PUSH2 0x8BB JUMP JUMPDEST PUSH2 0xBC6 DUP3 DUP3 DUP6 PUSH2 0xA2C JUMP JUMPDEST PUSH0 PUSH1 0x1F DUP4 GT PUSH1 0x1 DUP2 EQ PUSH2 0xBF3 JUMPI PUSH0 DUP5 ISZERO PUSH2 0xBE1 JUMPI DUP3 DUP8 ADD CALLDATALOAD SWAP1 POP JUMPDEST PUSH2 0xBEB DUP6 DUP3 PUSH2 0xA9A JUMP JUMPDEST DUP7 SSTORE POP PUSH2 0xC52 JUMP JUMPDEST PUSH1 0x1F NOT DUP5 AND PUSH2 0xC01 DUP7 PUSH2 0x918 JUMP JUMPDEST PUSH0 JUMPDEST DUP3 DUP2 LT ISZERO PUSH2 0xC28 JUMPI DUP5 DUP10 ADD CALLDATALOAD DUP3 SSTORE PUSH1 0x1 DUP3 ADD SWAP2 POP PUSH1 0x20 DUP6 ADD SWAP5 POP PUSH1 0x20 DUP2 ADD SWAP1 POP PUSH2 0xC03 JUMP JUMPDEST DUP7 DUP4 LT ISZERO PUSH2 0xC45 JUMPI DUP5 DUP10 ADD CALLDATALOAD PUSH2 0xC41 PUSH1 0x1F DUP10 AND DUP3 PUSH2 0xA7E JUMP JUMPDEST DUP4 SSTORE POP JUMPDEST PUSH1 0x1 PUSH1 0x2 DUP9 MUL ADD DUP9 SSTORE POP POP POP JUMPDEST POP POP POP POP POP POP POP JUMP INVALID LOG2 PUSH5 0x6970667358 0x22 SLT KECCAK256 0x2A 0xBE PUSH11 0x3B4A6587092167BEDF49F3 SWAP8 DUP13 0xD 0xD9 CHAINID 0xDC PREVRANDAO LOG4 SGT 0x26 BASEFEE DIV 0xE6 DUP6 0xE5 0xD9 0xA5 0xAA PUSH5 0x736F6C6343 STOP ADDMOD BYTE STOP CALLER "
				},
				"gasEstimates": {
					"creation": {
						"codeDepositCost": "643400",
						"executionCost": "674",
						"totalCost": "644074"
					},
					"external": {
						"create(string)": "infinite",
						"get(uint256)": "infinite",
						"todos(uint256)": "infinite",
						"toggleCompleted(uint256)": "28996",
						"updateText(uint256,string)": "infinite"
					}
				},
				"methodIdentifiers": {
					"create(string)": "b6a46b3b",
					"get(uint256)": "9507d39a",
					"todos(uint256)": "bc8bc2b4",
					"toggleCompleted(uint256)": "455f5024",
					"updateText(uint256,string)": "cd111614"
				}
			},
			"storageLayout": {
				"storage": [
					{
						"astId": 13,
						"contract": "contracts/Todos.sol:Todos",
						"label": "todos",
						"offset": 0,
						"slot": "0",
						"type": "t_array(t_struct(Todo)6_storage)dyn_storage"
					}
				],
				"types": {
					"t_array(t_struct(Todo)6_storage)dyn_storage": {
						"base": "t_struct(Todo)6_storage",
						"encoding": "dynamic_array",
						"label": "struct Todo[]",
						"numberOfBytes": "32"
					},
					"t_bool": {
						"encoding": "inplace",
						"label": "bool",
						"numberOfBytes": "1"
					},
					"t_string_storage": {
						"encoding": "bytes",
						"label": "string",
						"numberOfBytes": "32"
					},
					"t_struct(Todo)6_storage": {
						"encoding": "inplace",
						"label": "struct Todo",
						"members": [
							{
								"astId": 3,
								"contract": "contracts/Todos.sol:Todos",
								"label": "text",
								"offset": 0,
								"slot": "0",
								"type": "t_string_storage"
							},
							{
								"astId": 5,
								"contract": "contracts/Todos.sol:Todos",
								"label": "completed",
								"offset": 0,
								"slot": "1",
								"type": "t_bool"
							}
						],
						"numberOfBytes": "64"
					}
				}
			},
			"userdoc": {
				"kind": "user",
				"methods": {},
				"version": 1
			}
		}
	}
}